:10000000D8EF04F0F76A140FF66E000EF72209001D
:10001000F5501200280C010654656D70203A202519
:10002000332E316620256343202020000A524820C9
:1000300020203A2025332E3166202525202020003F
:10004000EA6A1B0EE96EEF500DE0060E016E006AC3
:10005000002EFED7012EFBD77B0E006E002EFED7A2
:10006000EF2EF3D7120022500F0B006EF00E81140A
:100070000010816E0000818A020E006E002EFED7F5
:1000800000D00000819A12008198420E006E002E6E
:10009000FED70000420E006E002EFED700001FA00B
:1000A00081981FB081880000819C0000819A2038CF
:1000B000216E0F0E211621C022F0D5DF20500F0B2C
:1000C000216E226ED0DF1200000E936E8198819C0B
:1000D000819A0F0E1B6EB4DF010E0D6E0D500308DA
:1000E00008E3030E226EBFDF050E1B6EA9DF0D2A8B
:1000F000F5D7020E226EB7DF0D6A0D50030809E333
:10010000036A0D507FDF0E6E1F6A206EBDDF0D2A61
:10011000F4D7E4EF04F094888B96949600D000D046
:1001200000008B86949600D000D000008B989498A5
:1001300000D000D000008B969496020E006E002E28
:10014000FED700D000008B86949600D000D000002F
:10015000948800D000D000008B969496120094886A
:100160008B969496020E006E002EFED700D00000F3
:100170000D6A0D50080812E38B869496020E006EED
:10018000002EFED700D000008B969496020E006ED3
:10019000002EFED700D000000D2AEBD7BCDFD2EF37
:1001A00000F0DDD7140E1B6E4BDFE6EF04F0800E7F
:1001B000226E060E006E002EFED70000216A21502E
:1001C000070815E38B9694962050221402E0948839
:1001D00002D08B98949800D000D000008B86949623
:1001E00000D000D00000D8902232212AE8D78B9688
:1001F000949600D000D000009488239082B8238089
:100200008B86949600D000D000008B969496000EBA
:1002100023B0010E016E120094888B96949600D044
:1002200000D00000216A206A2150750811E303E123
:1002300020502F080DE3948882B801D009D0100E09
:10024000006E002EFED70000202AD8B4212AECD759
:100250001200226A216A206A2050070813E3D8900E
:10026000213622368B86949600D000D000009488E8
:1002700082A801D021808B96949600D000D00000F7
:10028000202AEAD78B98949800D000D000008B8663
:100290009496020E006E002EFED700D000008B96C2
:1002A000949600D000D000009488206A205007085F
:1002B00013E3D890213622368B86949600D000D056
:1002C0000000948882A801D021808B96949600D05B
:1002D00000D00000202AEAD7948800D000D0000087
:1002E0008B869496020E006E002EFED700D0000082
:1002F0008B96949621C001F022C002F012000BDF11
:10030000030E206E54DF1D9001B01D801DA001D092
:100310000AD082DF9EDF02C01FF001C01EF01EC0A7
:1003200001F01FC002F0EDEF04F0F5DE050E206EC7
:100330003EDF1D9001B01D801DA001D00AD06CDFF2
:1003400088DF02C01FF001C01EF01EC001F01FC0F8
:1003500002F0F2EF04F08E0E006E36C001F035C0F0
:1003600002F0036A015209E102C001F0026A080EBC
:10037000005E015202E1006A08D0D89001BE04D0AC
:10038000023601360006F9D7019E12003D50D8B45E
:1003900071D0006E4150D8B46DD0002604E3810EB8
:1003A000002668E204D07F0E005E64E363E03EC096
:1003B00045F04250451A3E8E428E40504402F4CFE2
:1003C00047F03F504302F4CF03F0F3CF46F044022E
:1003D000F3504726F4504622000E032240504302B9
:1003E000F3504726F4504622000E026A03220222EE
:1003F0003E504402F3504626F4500322000E0222DF
:100400003E504302F3500326F4500222000E016ACC
:10041000012240504202F3504626F4500322000EBF
:10042000022201223F504202F3500326F4500222DE
:10043000000E01223E504202F3500226F4500122E7
:10044000002A01BE05D046360336023601360006C4
:10045000000E46AE0AD0032A02220122015005E115
:10046000025003E1035001E1002A45BE018E45AE72
:10047000019E04D0006A016A026A036A1200800EBB
:10048000D8B23E1A436A446A3AC042F03E50421A19
:100490003950D8B4DCD0416E006E3D50D8B4E0D0B5
:1004A000415ED8B481D03DE33EC047F0478E3FC0A7
:1004B00046F040C045F0446AD89047324632453253
:1004C0004432412EF8D742AE03D04380DDD0439072
:1004D00041904388EA6A3C0EE96EE9D0439842BEF7
:1004E0000AD041A013D04732463245324432002A66
:1004F000D8B4C5D00BD047BE0CD0D89044364536C2
:10050000463647360006D8B4BAD0F5D7438C6BD000
:10051000439C3AC042F03AAE02D0478EA9D0479EE3
:10052000A7D03DC041F03DC000F03950415E3AC017
:1005300047F0478E3BC046F03CC045F0446AD89037
:100540004732463245324432412EF8D742AE03D0CC
:1005500043829AD043924190438AEA6A400EE96E00
:10056000A6D0439A42BE0AD041A013D047324632A9
:1005700045324432002AD8B482D00BD047BE0CD0CA
:10058000D89044364536463647360006D8B477D03C
:10059000F5D7438E28D0439E3EC042F03EAE02D0F7
:1005A000478E66D0479E64D03EC047F0478E3FC01E
:1005B00046F040C045F042AE04D0479E438464D02C
:1005C0004394446A4190EA6A3C0EE96E70D042BEA0
:1005D0001CD03AC042F041A006D0473246324532E4
:1005E0004432002A4CE044AE0BD0452A09E1462AA9
:1005F00007E1472A05E1473246324532002A3FE00B
:1006000043BC86D743BEC7D71CD0800E471A47AE1F
:1006100004D03AD03EC042F00AD03AC042F047522D
:1006200006E1465204E1455202E1006A21D047BE8C
:1006300008D0D8904436453646364736002EF7D790
:100640001ED042AE02D0478E13D0479E11D03DC07F
:1006500000F03EC047F03FC046F040C045F008D033
:1006600039C000F03AC047F03BC046F03CC045F00E
:1006700047C001F046C002F045C003F034D0006A24
:10068000016A026A036A2FD0446A451E461E471E4D
:10069000441E442A05E1452A03E1462A01E1472A8E
:1006A00043B015D743B256D743B48AD7B3D7EF5028
:1006B000452605E3462A03E1472AD8B44180ED5296
:1006C000EF50462603E3472AD8B44180ED52EF505D
:1006D000EFBE01D0800A4726D8B0418043B8FED68D
:1006E00043BA3FD774D712001C2C01D003D0400E60
:1006F0001D6E01D01D6A010E1B5C1D261D50800958
:100700001E6E1F6A206EC0DC12001A500C0A05E033
:10071000060A0BE0020A0FE013D01F6A010E206EDA
:10072000B3DC020E1B6E8CDC10D0010E1B6E020EB1
:100730001C6EDADF0AD01F6A100E206EA5DC05D011
:10074000010E1F6E1AC020F09FDC12000900F6CFC8
:100750000EF0F7CF0FF0F5CF1AF0D7DF0EC0F6FF8F
:100760000FC0F7FF0D2EF2D712001A50B6081A6EFE
:10077000036A1BC01EF01B8ED8901B321C321D3228
:1007800003320232013200321A2EF6D71EAE0BD0DF
:10079000001E011E021E031E002AD8B4012AD8B46E
:1007A000022AD8B4032A43EF04F0D8B203D0EA6A8D
:1007B000220EE96E006A016A026A036A226A236AEB
:1007C000246A256A215020101F101E102CE0200ED4
:1007D000266ED8901A361B361C361D362236233626
:1007E000243625362150255C08E12050245C05E1A3
:1007F0001F50235C02E11E50225C0FE31E50225E5C
:100800001F50D8A01F3C235E2050D8A0203C245E5F
:100810002150D8A0213C255ED88000360136023612
:100820000336262ED6D722C0EFFF23C0ECFF24C00C
:10083000ECFF25C0ECFF1200E950126E1150146E4F
:1008400019E010C040F00FC03FF00EC03EF00DC0E8
:100850003DF0446A436A200E426E820E416E96DD80
:1008600003C010F002C00FF001C00EF000C00DF088
:10087000142EE7D710C01DF00FC01CF00EC01BF0E7
:100880000DC01AF072D703C010F002C00FF001C003
:100890000EF000C00DF010AE0DD01206128A0D1E23
:1008A0000E1E0F1E101E0D2AD8B40E2AD8B40F2A01
:1008B000D8B4102A3B0E196E9A0E186ECA0E176E17
:1008C000166A0A0E146E1150D8B4122AD882EA6A37
:1008D0000D0EE96E10C01DF00FC01CF00EC01BF015
:1008E0000DC01AF019C021F018C020F017C01FF079
:1008F00016C01EF05ADF015000520FE11128145C9F
:100900000CE012500CE00F0B145C01E037E212BE59
:1009100035D012BC04D0200E2DD0200E121612AAF3
:100920000CD0129A1150D8A412060050126E2D0E3F
:100930001A6EEBDE1250006E126A1150145C0AE15E
:100940000050126E2E0E1A6EE0DE1250006E200E57
:100950001216000E300E12AA0DD0129A1150D8A401
:1009600012060050126E2D0E1A6ECFDE1250006E5F
:10097000126A300E002600C01AF0C7DED89219C0E5
:100980001DF018C01CF017C01BF016C01AF0216A29
:10099000206A1F6A0A0E1E6E08DF03C019F002C02B
:1009A00018F001C017F000C016F0142E8FD71200F7
:1009B000F86AD09EEA6AE96AC150C00B0F09C16E9D
:1009C000070EB46E64EF00F0D1EF00F00E6A0D6A0E
:1009D0000C6A0B6A0A6A096A92D402C00EF001C05E
:1009E0000DF0A3D402C010F001C00FF00EC01EF035
:1009F0000DC01DF010C020F00FC01FF01EC036F05B
:100A00001DC035F0A8DC00C029F001C02AF002C0EA
:100A10002BF003C02CF003C040F002C03FF001C037
:100A20003EF000C03DF00A0E446ED70E436E230E1A
:100A3000426E780E416EAADC00C029F001C02AF097
:100A400002C02BF003C02CF0D88203C03CF002C0DF
:100A50003BF001C03AF000C039F0406A3F6A200E16
:100A60003E6E840E3D6E0BDD03C008F002C007F041
:100A700001C006F000C005F020C036F01FC035F000
:100A80006ADC03C028F002C027F001C026F000C0D5
:100A900025F028C040F027C03FF026C03EF025C01A
:100AA0003DF0540E446EE30E436E250E426E7A0EF8
:100AB000416E6CDC00C029F001C02AF002C02BF0AE
:100AC00003C02CF028C040F027C03FF026C03EF005
:100AD00025C03DF028C044F027C043F026C042F0B6
:100AE00025C041F053DC00C02DF001C02EF002C043
:100AF0002FF003C030F003C040F002C03FF001C04F
:100B00003EF000C03DF0A20E446EE70E436E3B0E79
:100B1000426E6C0E416E3ADCD8822CC03CF02BC089
:100B20003BF02AC03AF029C039F003C040F002C0BF
:100B30003FF001C03EF000C03DF0A1DC00C029F054
:100B400001C02AF002C02BF003C02CF0D88203C0F1
:100B50003CF002C03BF001C03AF000C039F0406AFE
:100B60003F6A3E6A810E3D6E8ADC03C014F002C00B
:100B700013F001C012F000C011F0D88208C03CF0A0
:100B800007C03BF006C03AF005C039F0406A3F6A42
:100B9000480E3E6E830E3D6E72DC00C029F001C02F
:100BA0002AF002C02BF003C02CF0AC0E406EC50E34
:100BB0003F6E270E3E6E710E3D6E28C044F027C07A
:100BC00043F026C042F025C041F0C6EC01F0D892B7
:100BD0000A0E3C6ED70E3B6E230E3A6E780E396EBF
:100BE00003C040F002C03FF001C03EF000C03DF045
:100BF00046DC2CC040F02BC03FF02AC03EF029C09C
:100C00003DF003C044F002C043F001C042F000C018
:100C100041F0C6EC01F000C029F001C02AF002C08A
:100C20002BF003C02CF0D89203C03CF002C03BF084
:100C300001C03AF000C039F014C040F013C03FF0DA
:100C400012C03EF011C03DF01ADC03C00CF002C02F
:100C50000BF001C00AF000C009F0010E1B6E1C6E03
:100C600043DD180EF66E000EF76E070E0D6E6EDD8C
:100C7000020EE96E08C010F007C00FF006C00EF0BB
:100C800005C00DF0010E116ED7DD200E1A6E3DDD90
:100C9000DF0E1A6E3ADD270EF66E000EF76E040EAA
:100CA0000D6E54DD2C0EF66E000EF76E080E0D6EF6
:100CB0004DDD020EE96E0CC010F00BC00FF00AC043
:100CC0000EF009C00DF0010E116EB6DD200E1A6E89
:100CD0001CDD250E1A6E19DD3C0EF66E000EF76E49
:100CE000030E0D6E33DD020E0D6EFA0E1B6E20EC40
:0A0CF00000F00D2EFAD76AD60300BB
:020000040030CA
:0E00000000C2180E008781000FC00FE00F40F5
:00000001FF
;PIC18F4520
;CRC=6171  CREATED="04-Nis-13 14:08"
