:1000000052EF01F0F76A140FF66E000EF7220900A6
:10001000F5501200280C01064578706B6974732046
:100020004144432044656D6F00000C414443313A24
:1000300025346C640000414443323A25346C64003A
:10004000EA6A120EE96EEF500DE0060E016E006ACC
:10005000002EFED7012EFBD77B0E006E002EFED7A2
:10006000EF2EF3D7120019500F0B006EF00E811413
:100070000010816E0000818A020E006E002EFED7F5
:1000800000D00000819A12008198420E006E002E6E
:10009000FED70000420E006E002EFED7000016A014
:1000A000819816B081880000819C0000819A1738E1
:1000B000186E0F0E181618C019F0D5DF17500F0B59
:1000C000186E196ED0DF1200000E936E8198819C1D
:1000D000819A0F0E126EB4DF010E086E08500308ED
:1000E00008E3030E196EBFDF050E126EA9DF082AA2
:1000F000F5D7020E196EB7DF086A0850030809E346
:10010000036A08507FDF096E166A176EBDDF082A82
:10011000F4D769EF01F0132C01D003D0400E146E18
:1001200001D0146A010E125C142614508009156E59
:10013000166A176EA9DF120011500C0A05E0060AB4
:100140000BE0020A0FE013D0166A010E176E9CDF57
:10015000020E126E75DF10D0010E126E020E136EBB
:10016000DADF0AD0166A100E176E8EDF05D0010E88
:10017000166E11C017F088DF12000900F5520CE06E
:10018000F6CF08F0F7CF09F0F5CF11F0D5DF08C0B2
:10019000F6FF09C0F7FFF1D775EF01F00900F6CFC0
:1001A00009F0F7CF0AF0F5CF11F0C6DF09C0F6FF6E
:1001B0000AC0F7FF082EF2D71200EACF10F0E9CFFD
:1001C0000FF009AE08D00F8E0FA80F2A081E091EC7
:1001D000082AD8B4092A0938F0090B6E0B26E20F59
:1001E0000C6E320F0E6E09500F0B0C260C260E26CD
:1001F000E90F0D6E0D260D2608380F0B0D260E2665
:100200000D360E360E1E0E3608500F0B0E260B3610
:10021000070E0A6E0A0E0D060E26FDE30C060D26CD
:10022000FDE30B060C26FDE30A060B26FDE3EA6A56
:100230000A0EE96E070E0F140F9CE9060F1407E172
:100240000FB8E92A0FB803D0200E006E1CD0E926A3
:100250000E0EE95CD8B40F8CEF50006E08E10FBCB5
:1002600006D00FB81BD00FB602D0200E0BD00FAEA9
:1002700006D02D0E006EED500F9C0F9E04D00F8601
:100280000F98300E0026EACF09F0E9CF08F000C041
:1002900011F052DF09C0EAFF08C0E9FFEE500FACD1
:1002A000D7D71200F86AD09EEA6AE96AC150C00B3B
:1002B0000F09C16E070EB46E046A056AC150C00B07
:1002C0000D09C16EC050C00B0709C06EC08EC28040
:1002D000FBD6640E126EB4DE010E126E136E1BDFBF
:1002E000180EF66E000EF76E48D7080E086EFA0E5E
:1002F000126EA6DE082EFBD7020E086E960E126E48
:100300009FDE082EFBD7000E016EC250C30B0110FA
:10031000C26EC282C2B2FED7C3CF06F0C4CF07F00E
:100320002A0EF66E000EF76E060E086E37DF020E0E
:10033000E96E07C009F006C008F03FDF040E016E49
:10034000C250C30B0110C26EC282C2B2FED7C3CF6D
:1003500006F0C4CF07F0010E126E020E136EDBDE44
:10036000360EF66E000EF76E050E086E17DF020EE3
:10037000E96E07C009F006C008F01FDFBDD7030013
:020000040030CA
:0E00000000C2180E008581000FC00FE00F40F7
:00000001FF
;PIC18F4520
;CRC=4D91  CREATED="25-Nis-13 14:34"
