:10000000A5EF01F0F76A140FF66E000EF722090053
:10001000F5501200280C01060C56616C75653A25E6
:10002000346C6400EA6A110EE96EEF500DE0060EC2
:10003000016E006A002EFED7012EFBD77B0E006EEC
:10004000002EFED7EF2EF3D7120018500F0B006EC4
:10005000F00E81140010816E0000818A020E006E85
:10006000002EFED700D00000819A12008198420E27
:10007000006E002EFED70000420E006E002EFED74E
:10008000000015A0819815B081880000819C0000B7
:10009000819A1638176E0F0E171617C018F0D5DF95
:1000A00016500F0B176E186ED0DF1200000E936EF5
:1000B0008198819C819A0F0E116EB4DF010E076E3C
:1000C0000750030808E3030E186EBFDF050E116E1C
:1000D000A9DF072AF5D7020E186EB7DF076A0750A7
:1000E000030809E3036A07508DDF086E156A166E70
:1000F000BDDF072AF4D7CBEF01F0EACF0FF0E9CF4D
:100100000EF008AE08D00E8E0EA80E2A071E081E8E
:10011000072AD8B4082A0838F0090A6E0A26E20F1E
:100120000B6E320F0D6E08500F0B0B260B260D2693
:10013000E90F0C6E0C260C2607380F0B0C260D262B
:100140000C360D360D1E0D3607500F0B0D260A36D8
:10015000070E096E0A0E0C060D26FDE30B060C2693
:10016000FDE30A060B26FDE309060A26FDE3EA6A1B
:10017000090EE96E070E0E140E9CE9060E1407E137
:100180000EB8E92A0EB803D0200E006E1CD0E92666
:100190000D0EE95CD8B40E8CEF50006E08E10EBC79
:1001A00006D00EB814D00EB602D0200E0BD00EAE74
:1001B00006D02D0E006EED500E9C0E9E04D00E86C5
:1001C0000E98300E002600509EA8FED7AD6EEE5061
:1001D0000EACDED7E7EF01F0122C01D003D0400EB9
:1001E000136E01D0136A010E115C1326135080099F
:1001F000146E156A166E3ADF1EEF01F010500C0AED
:1002000005E0060A0BE0020A0FE013D0156A010EA2
:10021000166E2CDF020E116E05DF10D0010E116E6E
:10022000020E126ED9D70AD0156A100E166E1EDF96
:1002300005D0010E156E10C016F018DF120009006F
:10024000F6CF08F0F7CF09F0F5CF10F0D7DF08C0F0
:10025000F6FF09C0F7FF072EF2D7EEEF01F0EACF65
:100260000FF0E9CF0EF008AE08D00E8E0EA80E2AC1
:10027000071E081E072AD8B4082A0838F0090A6E93
:100280000A26E20F0B6E320F0D6E08500F0B0B2675
:100290000B260D26E90F0C6E0C260C2607380F0BCB
:1002A0000C260D260C360D360D1E0D3607500F0B85
:1002B0000D260A36070E096E0A0E0C060D26FDE302
:1002C0000B060C26FDE30A060B26FDE309060A26AB
:1002D000FDE3EA6A090EE96E070E0E140E9CE906AC
:1002E0000E1407E10EB8E92A0EB803D0200E006EF6
:1002F0001CD0E9260D0EE95CD8B40E8CEF50006ED0
:1003000008E10EBC06D00EB81BD00EB602D0200EEF
:100310000BD00EAE06D02D0E006EED500E9C0E9E34
:1003200004D00E860E98300E0026EACF08F0E9CFF2
:1003300007F000C010F062DF08C0EAFF07C0E9FF65
:10034000EE500EACD7D7F5EF01F0F86AD09EEA6A0E
:10035000E96AB886080EAF6E020EB06EA60EAC6EDD
:10036000900EAB6E00000000C150C00B0F09C16EB3
:10037000070EB46EC150C00B0E09C16EC050C00B49
:100380000709C06EC08EC280000E016EC250C30B42
:100390000110C26E8BD6640E116E44DE640E116EB7
:1003A00041DEC282C2B2FED7C3CF05F0C4CF06F091
:1003B0000A0E9EA8FED7AD6E0D0E9EA8FED7AD6E9E
:1003C000020EE96E06C008F005C007F096D6180EBA
:1003D000F66E000EF76E070E076E31D7020EE96E4D
:0E03E00006C008F005C007F03AD7D8D70300D2
:020000040030CA
:0E00000000C2180E008581000FC00FE00F40F7
:00000001FF
;PIC18F4520
;CRC=1C54  CREATED="02-Nis-13 15:49"
