:10000000D7EF00F0F76A140FF66E000EF722090022
:10001000F5501200280C01064578706B6974732046
:1000200020200000525334383520586D6974204424
:10003000656D6F00EA6A080EE96EEF500DE0060E7E
:10004000016E006A002EFED7012EFBD77B0E006EDC
:10005000002EFED7EF2EF3D712000F500F0B006EBD
:10006000F00E81140010816E0000818A020E006E75
:10007000002EFED700D00000819A12008198420E17
:10008000006E002EFED70000420E006E002EFED73E
:1000900000000CA081980CB081880000819C0000B9
:1000A000819A0D380E6E0F0E0E160EC00FF0D5DFB2
:1000B0000D500F0B0E6E0F6ED0DF1200000E936E00
:1000C0008198819C819A0F0E086EB4DF010E056E37
:1000D0000550030808E3030E0F6EBFDF050E086E20
:1000E000A9DF052AF5D7020E0F6EB7DF056A0550A6
:1000F000030809E3036A055085DF066E0C6A0D6E7E
:10010000BDDF052AF4D7EFEF00F0092C01D003D0B2
:10011000400E0A6E01D00A6A010E085C0A260A50D7
:1001200080090B6E0C6A0D6EA9DF120007500C0AD5
:1001300005E0060A0BE0020A0FE013D00C6A010E7C
:100140000D6E9CDF020E086E75DF10D0010E086E7A
:10015000020E096EDADF0AD00C6A100E0D6E8EDF09
:1001600005D0010E0C6E07C00DF088DFC2EF00F065
:100170000900F5520CE0F6CF05F0F7CF06F0F5CF09
:1001800007F0D4D705C0F6FF06C0F7FFF1D712007D
:10019000949A8B8A9EA8FED705C0ADFF0000949A62
:1001A0008B8AACA2FED7949A8B9A14EF01F0F86A6E
:1001B000D09EEA6AE96A949A8B9AB886080EAF6E66
:1001C000020EB06EA60EAC6E900EAB6E000000007C
:1001D000C150C00B0F09C16E070EB46E6FD7640E0D
:1001E000086E28DF010E086E096E8FDF180EF66E9E
:1001F000000EF76EBDDF010E086E020E096E85DF80
:10020000240EF66E000EF76EB3DF0C0E056EFA0EBE
:10021000086E10DF052EFBD7959895988C98949AC8
:100220008B8A580E056EB4D7FA0E086E03DFF9D725
:020230000300C9
:020000040030CA
:0E00000000C2180E008781000FC00FE00F40F5
:00000001FF
;PIC18F4520
;CRC=9941  CREATED="25-Nis-13 16:07"
