:10000000D5EF00F0F76A140FF66E000EF722090024
:10001000F5501200280C01060C4A6F79737469635D
:100020006B2044656D6F0000205553540000204143
:100030004C54000020534147000020534F4C000017
:1000400020454E5445520000204553430000EA6AC3
:10005000080EE96EEF500DE0060E016E006A002EEC
:10006000FED7012EFBD77B0E006E002EFED7EF2EA3
:10007000F3D712000F500F0B006EF00E811400101A
:10008000816E0000818A020E006E002EFED700D025
:100090000000819A12008198420E006E002EFED759
:1000A0000000420E006E002EFED700000CA08198CA
:1000B0000CB081880000819C0000819A0D380E6E82
:1000C0000F0E0E160EC00FF0D5DF0D500F0B0E6E7B
:1000D0000F6ED0DF1200000E936E8198819C819A82
:1000E0000F0E086EB4DF010E056E0550030808E31D
:1000F000030E0F6EBFDF050E086EA9DF052AF5D7C8
:10010000020E0F6EB7DF056A0550030809E3036AA4
:10011000055078DF066E0C6A0D6EBDDF052AF4D738
:10012000E5EF00F0092C01D003D0400E0A6E01D09B
:100130000A6A010E085C0A260A5080090B6E0C6AD6
:100140000D6EA9DF120007500C0A05E0060A0BE04D
:10015000020A0FE013D00C6A010E0D6E9CDF020E36
:10016000086E75DF10D0010E086E020E096EDADF20
:100170000AD00C6A100E0D6E8EDF05D0010E0C6ECB
:1001800007C00DF088DFCFEF00F00900F5520CE05A
:10019000F6CF05F0F7CF06F0F5CF07F0D4D705C0BE
:1001A000F6FF06C0F7FFF1D71200F86AD09EEA6AA0
:1001B000E96AC150C00B0F09C16E070EB46EC15081
:1001C000C00B0F09C16EC29086D7640E086E3FDF68
:1001D000939E8A9E180EF66E000EF76ED6DF010E05
:1001E000086E020E096E9EDF968084A005D0280E50
:1001F000F66E000EF76EC9DF928480A405D02E0E35
:10020000F66E000EF76EC1DF968484A405D0340E1E
:10021000F66E000EF76EB9DF968284A205D03A0E14
:10022000F66E000EF76EB1DF928680A605D0400E06
:10023000F66E000EF76EA9DF928880A805D0480EF2
:10024000F66E000EF76EA1DFFA0E086E00DFC2D761
:020250000300A9
:020000040030CA
:0E00000000C2180E008781000FC00FE00F40F5
:00000001FF
;PIC18F4520
;CRC=2885  CREATED="02-May-13 10:56"
