:1000000032EF01F0F76A140FF66E000EF7220900C6
:10001000F5501200280C01060C494E313A20256497
:100020000000494E323A20256400524C313A2025D6
:100030006400524C323A20256400EA6A100EE96EE0
:10004000EF500DE0060E016E006A002EFED7012E65
:10005000FBD77B0E006E002EFED7EF2EF3D71200DB
:1000600017500F0B006EF00E81140010816E00000F
:10007000818A020E006E002EFED700D00000819A09
:1000800012008198420E006E002EFED70000420E34
:10009000006E002EFED7000014A0819814B0818855
:1000A0000000819C0000819A1538166E0F0E1616FE
:1000B00016C017F0D5DF15500F0B166E176ED0DF78
:1000C0001200000E936E8198819C819A0F0E106E23
:1000D000B4DF010E086E0850030808E3030E176E24
:1000E000BFDF050E106EA9DF082AF5D7020E176EC6
:1000F000B7DF086A0850030809E3036A085082DF83
:10010000096E146A156EBDDF082AF4D745EF01F0B9
:10011000112C01D003D0400E126E01D0126A010ED4
:10012000105C122612508009136E146A156EA9DF36
:1001300012000F500C0A05E0060A0BE0020A0FE05D
:1001400013D0146A010E156E9CDF020E106E75DF5F
:1001500010D0010E106E020E116EDADF0AD0146A92
:10016000100E156E8EDF05D0010E146E0FC015F047
:1001700088DF12000900F6CF0AF0F7CF0BF0F5CFB9
:100180000FF0D7DF0AC0F6FF0BC0F7FF092EF2D73A
:1001900012001050016A0F5C03E20FC000F00CD097
:1001A000006A080E116E0F3600361050005CD8B091
:1001B000006E0136112EF7D71200200E0AA8300E5D
:1001C0000B6E09C000F009AE08D0001E002A00C066
:1001D00009F02D0E0B6E0A8E0A80015009C00FF037
:1001E000640E106ED6DF00C009F0300E01240C6ED4
:1001F00009C00FF00A0E106ECCDF300E00240E6E18
:10020000300E01240D6E0BC000F0300E0C5C04E0CB
:100210000A820ABE0A8412D00BC00CF0200E0B6EAC
:10022000300E0D5C04E00A800ABE0A8207D0D8A412
:100230000A8004E10CC00DF0200E0C6E0AB405D04B
:100240000AB206D00AB007D009D00BC00FF071DF98
:100250000CC00FF06EDF0DC00FF06BDF0EC00FF0A3
:1002600068DF1200F86AD09EEA6AE96A066A076ADD
:10027000C150C00B0F09C16E070EB46E030E946E11
:10028000C150C00B0F09C16E1CD7640E106ED5DEB5
:10029000046A82B0042A056A82B2052A958083A086
:1002A00008D094948B74066A82B4062A320E106EBB
:1002B000C4DE958283A208D094968B76076A82B6B4
:1002C000072A320E106EB9DE045202E0000E01D091
:1002D000010E086E180EF66E000EF76E060E096E11
:1002E00049DF08C009F0180E0A6E67DF0A0E106EAB
:1002F000010E116E0DDF055202E0000E01D0010E5D
:10030000086E220EF66E000EF76E050E096E32DFD5
:1003100008C009F0180E0A6E50DF010E106E020EB2
:10032000116EF6DE2A0EF66E000EF76E050E096EE1
:1003300021DF06C009F0180E0A6E3FDF0A0E106EAC
:10034000020E116EE5DE320EF66E000EF76E050E31
:10035000096E10DF07C009F0180E0A6E2EDF020EBC
:10036000086E960E106E69DE082EFBD791D703003B
:020000040030CA
:0E00000000C2180E008781000FC00FE00F40F5
:00000001FF
;PIC18F4520
;CRC=5292  CREATED="04-Nis-13 11:48"
