:1000000029EF03F0F76A140FF66E000EF7220900CD
:10001000F5501200280C01060C54656D703A20252D
:10002000322E316625634300EA6A1B0EE96EEF50FB
:100030000DE0060E016E006A002EFED7012EFBD7E2
:100040007B0E006E002EFED7EF2EF3D7120022504B
:100050000F0B006EF00E81140010816E0000818A7B
:10006000020E006E002EFED700D00000819A120012
:100070008198420E006E002EFED70000420E006EE8
:10008000002EFED700001FA081981FB081880000BD
:10009000819C0000819A2038216E0F0E211621C00C
:1000A00022F0D5DF20500F0B216E226ED0DF120020
:1000B000000E936E8198819C819A0F0E1B6EB4DFA7
:1000C000010E0D6E0D50030808E3030E226EBFDF14
:1000D000050E1B6EA9DF0D2AF5D7020E226EB7DFC3
:1000E0000D6A0D50030809E3036A0D508BDF0E6E95
:1000F0001F6A206EBDDF0D2AF4D736EF03F08E0E97
:10010000006E0EC001F00DC002F0036A015209E159
:1001100002C001F0026A080E005E015202E1006AAC
:1001200008D0D89001BE04D0023601360006F9D7B7
:10013000019E67EF03F01A50D8B471D0006E1E50C4
:10014000D8B46DD0002604E3810E002668E204D006
:100150007F0E005E64E363E01BC022F01F50221A92
:100160001B8E1F8E1D502102F4CF24F01C50200244
:10017000F4CF03F0F3CF23F02102F3502426F45000
:100180002322000E03221D502002F3502426F45097
:100190002322000E026A032202221B502102F35086
:1001A0002326F4500322000E02221B502002F3509B
:1001B0000326F4500222000E016A01221D501F0284
:1001C000F3502326F4500322000E022201221C5079
:1001D0001F02F3500326F4500222000E01221B508E
:1001E0001F02F3500226F4500122002A01BE05D05E
:1001F00023360336023601360006000E23AE0AD03F
:10020000032A02220122015005E1025003E10350BA
:1002100001E1002A22BE018E22AE019E04D0006AB6
:10022000016A026A036A12001150D8B4A5D01D6E8B
:100230001550D8B4A1D01D5E05E37F0E1D26D8B0A1
:100240009BD006D0810E1D5ED8A096D0D8B494D095
:100250001DC000F0016A026A036A1C6A12C01BF02A
:100260001B8E13C01AF014C019F0190E1D6E185011
:10027000195E0DE2010E1A5E0AE21B5E08E21C5EC8
:1002800006E21C2A1B2A1A2A1850192628D01750B1
:100290001A5E12E2010E1B5E0FE21C5E0DE21C2ACA
:1002A0001B2A17501A261850192619E31A2A17E183
:1002B0001B2A15E11C2A13D0165080091B5E0EE282
:1002C000010E1C5E0BE21C2A165080091B261750DB
:1002D0001A26E9E31B2AE7E11C2AE5D703801D2E35
:1002E00001D00BD0D89019361A361B361C36D89050
:1002F0000336023601361E36BAD71EA006D0D89075
:100300000132023203321E3202D0000635E01EBE38
:100310001ED0D89019361A361B361C361850195E66
:1003200007E2010E1A5E04E21B5E02E21C5E1AE3A3
:1003300017501A5E05E2010E1B5E02E21C5E12E31C
:10034000165080091B5E03E2010E1C5E0BE3032ABC
:1003500009E1022A07E1012A05E1002A0DE0013244
:100360000232033212C01DF016501D1A1DAE02D00B
:10037000018E06D0019E04D0006A016A026A036AF7
:10038000ABEF03F01C2C01D003D0400E1D6E01D04A
:100390001D6A010E1B5C1D261D5080091E6E1F6A02
:1003A000206E66DEF4EF01F01A500C0A05E0060A32
:1003B0000BE0020A0FE013D01F6A010E206E58DE18
:1003C000020E1B6E31DE10D0010E1B6E020E1C6E73
:1003D000D9D70AD01F6A100E206E4ADE05D0010E52
:1003E0001F6E1AC020F044DE12000900F6CF0EF096
:1003F000F7CF0FF0F5CF1AF0D7DF0EC0F6FF0FC022
:10040000F7FF0D2EF2D7BAEF03F01A50B6081A6EA6
:10041000036A1BC01EF01B8ED8901B321C321D328B
:1004200003320232013200321A2EF6D71EAE0BD042
:10043000001E011E021E031E002AD8B4012AD8B4D1
:10044000022AD8B4032A93EF02F0D8B203D0EA6AA2
:10045000220EE96E006A016A026A036A226A236A4E
:10046000246A256A215020101F101E102CE0200E37
:10047000266ED8901A361B361C361D362236233689
:10048000243625362150255C08E12050245C05E106
:100490001F50235C02E11E50225C0FE31E50225EBF
:1004A0001F50D8A01F3C235E2050D8A0203C245EC3
:1004B0002150D8A0213C255ED88000360136023676
:1004C0000336262ED6D722C0EFFF23C0ECFF24C070
:1004D000ECFF25C0ECFF1200E950126E1150146EB3
:1004E00019E010C01DF00FC01CF00EC01BF00DC0B5
:1004F0001AF0216A206A200E1F6E820E1E6E1BDE0D
:1005000003C010F002C00FF001C00EF000C00DF0EB
:10051000142EE7D710C01DF00FC01CF00EC01BF04A
:100520000DC01AF072D703C010F002C00FF001C066
:100530000EF000C00DF010AE0DD01206128A0D1E86
:100540000E1E0F1E101E0D2AD8B40E2AD8B40F2A64
:10055000D8B4102A3B0E196E9A0E186ECA0E176E7A
:10056000166A0A0E146E1150D8B4122AD882EA6A9A
:100570000D0EE96E10C01DF00FC01CF00EC01BF078
:100580000DC01AF019C021F018C020F017C01FF0DC
:1005900016C01EF05ADF015000520FE11128145C02
:1005A0000CE012500CE00F0B145C01E037E212BEBD
:1005B00035D012BC04D0200E2DD0200E121612AA57
:1005C0000CD0129A1150D8A412060050126E2D0EA3
:1005D0001A6EEADE1250006E126A1150145C0AE1C3
:1005E0000050126E2E0E1A6EDFDE1250006E200EBC
:1005F0001216000E300E12AA0DD0129A1150D8A465
:1006000012060050126E2D0E1A6ECEDE1250006EC3
:10061000126A300E002600C01AF0C6DED89219C049
:100620001DF018C01CF017C01BF016C01AF0216A8C
:10063000206A1F6A0A0E1E6E08DF03C019F002C08E
:1006400018F001C017F000C016F0142E8FD7C6EFB7
:1006500003F0F86AD09EEA6AE96AC150C00B0F093C
:10066000C16E070EB46E936A8A6A22D5640E1B6E41
:10067000DBDC939E8A9E070EB46E9250926E100E33
:10068000006E002EFED70000B450A19CC150C00BDC
:100690000A09C16EC050C00B0709C06EC08EC2806F
:1006A000100E016EC250C30B0110C26E020E0D6E11
:1006B000FA0E1B6EB9DC0D2EFBD7C282C2B2FED77A
:1006C000C4CF03F0C3CF0DF0C4CF0EF018D503C0D4
:1006D00008F002C007F001C006F000C005F01D6A76
:1006E0001C6A200E1B6E810E1A6E08C021F007C016
:1006F00020F006C01FF005C01EF01DDD00C00DF08B
:1007000001C00EF002C00FF003C010F003C01DF0D6
:1007100002C01CF001C01BF000C01AF0216A206A60
:10072000480E1F6E850E1E6E06DD00C00DF001C066
:100730000EF002C00FF003C010F003C014F002C0AE
:1007400013F001C012F000C011F0186A176A166A9F
:10075000890E156E69D503C00CF002C00BF001C004
:100760000AF000C009F0180EF66E000EF76E070EC4
:100770000D6E3BD6010EE96E0CC010F00BC00FF0F1
:100780000AC00EF009C00DF0116EA6D6DF0E1A6E6B
:0C0790000BDE430E1A6E08DE89D7030052
:020000040030CA
:0E00000000C2180E008581000FC00FE00F40F7
:00000001FF
;PIC18F4520
;CRC=2998  CREATED="02-May-13 11:01"
