:10000000A7EF01F0F76A140FF66E000EF722090051
:10001000F5501200280C01060C4C44523A25346C61
:1000200064004C6576656C3A256C750047656365C0
:10003000000047756E00EA6A180EE96EEF500DE099
:10004000060E016E006A002EFED7012EFBD77B0E36
:10005000006E002EFED7EF2EF3D712001F500F0BAD
:10006000006EF00E81140010816E0000818A020E75
:10007000006E002EFED700D00000819A12008198F9
:10008000420E006E002EFED70000420E006E002EC3
:10009000FED700001CA081981CB081880000819CC4
:1000A0000000819A1D381E6E0F0E1E161EC01FF016
:1000B000D5DF1D500F0B1E6E1F6ED0DF1200000E1D
:1000C000936E8198819C819A0F0E186EB4DF010E99
:1000D0000E6E0E50030808E3030E1F6EBFDF050E01
:1000E000186EA9DF0E2AF5D7020E1F6EB7DF0E6A53
:1000F0000E50030809E3036A0E5084DF0F6E1C6A7A
:100100001D6EBDDF0E2AF4D7B4EF01F0192C01D01B
:1001100003D0400E1A6E01D01A6A010E185C1A261E
:100120001A5080091B6E1C6A1D6EA9DF1200175041
:100130000C0A05E0060A0BE0020A0FE013D01C6A65
:10014000010E1D6E9CDF020E186E75DF10D0010EC1
:10015000186E020E196EDADF0AD01C6A100E1D6EC0
:100160008EDF05D0010E1C6E17C01DF088DF120057
:100170000900F6CF0FF0F7CF10F0F5CF17F0D7DF6B
:100180000FC0F6FF10C0F7FF0E2EF2D71200EACF15
:1001900016F0E9CF15F00FAE08D0158E15A8152A68
:1001A0000E1E0F1E0E2AD8B40F2A0F38F009116E3A
:1001B0001126E20F126E320F146E0F500F0B122623
:1001C00012261426E90F136E132613260E380F0B72
:1001D0001326142613361436141E14360E500F0B25
:1001E00014261136070E106E0A0E13061426FDE3B0
:1001F00012061326FDE311061226FDE31006112652
:10020000FDE3EA6A100EE96E070E1514159CE90667
:10021000151407E115B8E92A15B803D0200E006EB1
:100220001CD0E926140EE95CD8B4158CEF50006E92
:1002300008E115BC06D015B81BD015B602D0200EAB
:100240000BD015AE06D02D0E006EED50159C159EF0
:1002500004D015861598300E0026EACF0FF0E9CFAE
:100260000EF000C017F063DF0FC0EAFF0EC0E9FF19
:10027000EE5015ACD7D70FEF02F0EACF16F0E9CF6A
:1002800015F00F38F009116E1126E20F126E320FC1
:10029000146E0F500F0B122612261426E90F136E40
:1002A000132613260E380F0B132614261336143676
:1002B000141E14360E500F0B14261136070E106E36
:1002C0000A0E13061426FDE312061326FDE311069B
:1002D0001226FDE310061126FDE3EA6A100EE96E10
:1002E000070E1514159CE926140EE95CD8B4158C7C
:1002F000EF50006E08E115BC06D015B813D015B646
:1003000002D0200E03D015861598300E0026EACFB5
:100310000FF0E9CF0EF000C017F009DF0FC0EAFFC1
:100320000EC0E9FFEE5015ACDFD722EF02F0090056
:10033000F5520CE0F6CF0EF0F7CF0FF0F5CF17F037
:10034000F6DE0EC0F6FF0FC0F7FFF1D71200F86A15
:10035000D09EEA6AE96AC150C00B0F09C16E070E50
:10036000B46E936A8A6AABD6640E186E64DEC150AE
:10037000C00B0E09C16EC050C00B0709C06EC08E05
:10038000C280000E016EC250C30B0110C26E0C6A17
:10039000B40E0B6E086807680A6A096A0D6A0D5088
:1003A000100822E3320E186E46DEC282C2B2FED7B9
:1003B000C3CF05F0C4CF06F00650085C08E303E1A4
:1003C0000750055C04E206C008F005C007F00A50BB
:1003D000065C08E303E10550095C04E206C00AF08C
:1003E00005C009F00D2ADBD7958083A004D00B50FF
:1003F000D8B40C060B06958283A203D00B2AD8B47E
:100400000C2A180EF66E000EF76E050E0E6EB0DE9C
:10041000020EE96E06C00FF005C00EF0B8D6010E50
:10042000186E020E196E72DE220EF66E000EF76E58
:10043000060E0E6E9DDE100EE96E0CC00FF00BC0A6
:100440000EF01BD70C50065C11E303E105500B5C6A
:100450000DE294968B860C0E186E010E196E56DE08
:100460002C0EF66E000EF76E62DF0CD094968B9613
:100470000C0E186E010E196E49DE320EF66E000E6D
:08048000F76E55DF87D703007A
:020000040030CA
:0E00000000C2180E008581000FC00FE00F40F7
:00000001FF
;PIC18F4520
;CRC=241C  CREATED="02-Nis-13 14:31"
