:1000000021EF01F0F76A140FF66E000EF7220900D7
:10001000F55012003F065B4F666D7D077F67016AF2
:10002000026A006A036A145002E1135018E0100ECD
:10003000156ED89011361236003603361450035C14
:1000400002E11350005C07E31350005ED8A00306E2
:100050001450035ED88001360236152EEAD71200FE
:10006000EA6A0F0EE96EEF500DE0060E016E006AAF
:10007000002EFED7012EFBD77B0E006E002EFED782
:10008000EF2EF3D71200056A046A05502708D8A09E
:10009000D6D004E104500F08D8A0D1D005C012F08A
:1000A00004C011F0146A0A0E136EB9DF00C008F024
:1000B00003C009F005C012F004C011F0146A0A0E62
:1000C000136EADDF02C010F001C00FF002C012F0DD
:1000D00001C011F0146A0A0E136EA1DF00C006F011
:1000E00003C007F005C012F004C011F0146A640EDA
:1000F000136E95DF02C010F001C00FF002C012F0C5
:1001000001C011F0146A0A0E136E89DF00C00AF0F4
:1001100003C00BF005C012F004C011F0030E146E02
:10012000E80E136E7CDF02C010F001C00FF002C0B9
:1001300012F001C011F0146A0A0E136E70DF00C0D5
:100140000CF003C00DF009C003F008505BDF036A38
:10015000086E03C009F007C003F0065053DF036ABE
:10016000066E03C007F00BC003F00A504BDF036AB2
:100170000A6E03C00BF00DC003F00C5043DF036A9E
:100180000C6E03C00DF00E50180802E3088E02D06A
:10019000089E096A0E50190805E20E50310802E364
:1001A000068E02D0069E076A0E50320805E20E50F7
:1001B0004A0802E30A8E02D00A9E0B6A0E504B08D0
:1001C00005E20E50630802E30C8E02D00C9E0D6A0D
:1001D0000E2A0E506308D8A00E6A92948984956AFC
:1001E00008C08CFF050E0F6E3BDF929489949296A7
:1001F0008986956A06C08CFF050E0F6E31DF9296D8
:10020000899692988988956A0AC08CFF050E0F6EB0
:1002100027DF92988998929A898A956A0CC08CFFF8
:10022000050E0F6E1DDF929A899A520E006E002EF7
:10023000FED700D00000042AD8B4052A26D731EF13
:1002400001F0F86AD09EEA6AE96A0E6AC150C00BF2
:100250000F09C16E070EB46EC150C00B0F09C16EFD
:0602600012D7FED70300D7
:020000040030CA
:0E00000000C2180E008581000FC00FE00F40F7
:00000001FF
;PIC18F4520
;CRC=9511  CREATED="02-Nis-13 13:35"
