:10000000E4EF00F0F76A140FF66E000EF722090015
:10001000F5501200280C01060C4432203C202044EC
:100020003120203E443000004F72746164612053DF
:100030006162697400005361676120686172656B79
:1000400065740000536F6C6120686172656B657444
:100050000000EA6A080EE96EEF500DE0060E016E30
:10006000006A002EFED7012EFBD77B0E006E002EFD
:10007000FED7EF2EF3D712000F500F0B006EF00ECD
:1000800081140010816E0000818A020E006E002E25
:10009000FED700D00000819A12008198420E006EB7
:1000A000002EFED70000420E006E002EFED700008C
:1000B0000CA081980CB081880000819C0000819A7E
:1000C0000D380E6E0F0E0E160EC00FF0D5DF0D5050
:1000D0000F0B0E6E0F6ED0DF1200000E936E819824
:1000E000819C819A0F0E086EB4DF010E056E0550DB
:1000F000030808E3030E0F6EBFDF050E086EA9DFCD
:10010000052AF5D7020E0F6EB7DF056A0550030802
:1001100009E3036A055076DF066E0C6A0D6EBDDFDB
:10012000052AF4D7F4EF00F0092C01D003D0400EDB
:100130000A6E01D00A6A010E085C0A260A5080097C
:100140000B6E0C6A0D6EA9DF120007500C0A05E059
:10015000060A0BE0020A0FE013D00C6A010E0D6EC6
:100160009CDF020E086E75DF10D0010E086E020EC5
:10017000096EDADF0AD00C6A100E0D6E8EDF05D024
:10018000010E0C6E07C00DF088DFD1EF00F0090002
:10019000F5520CE0F6CF05F0F7CF06F0F5CF07F0FB
:1001A000D4D705C0F6FF06C0F7FFF1D71200030E43
:1001B000065E09E3EA6A060EE96EEF5004E001D03C
:1001C00000D0EF2EFDD71200F86AD09EEA6AE96AE5
:1001D000C150C00B0F09C16E070EB46EC150C00BE9
:1001E0000F09C16EC29079D7640E086E32DF180E07
:1001F000F66E000EF76ECBDF958283A222D0010E41
:10020000086E020E096E90DF280EF66E000EF76E75
:10021000BEDF929A898A010E086E1BDF020E056E00
:10022000F90E066EC4DF052EFBD7929A899A120E3C
:10023000086E0FDF020E056EF90E066EB8DF052E92
:10024000FBD7958083A014D0010E086E020E096EB4
:100250006BDF360EF66E000EF76E99DF929A898A82
:10026000010E086EF6DE929A899A130E086EF1DE80
:10027000958483A414D0010E086E020E096E54DF1B
:10028000440EF66E000EF76E82DF929A898A020E95
:10029000086EDFDE929A899A120E086EDADEACD70B
:0202A000030059
:020000040030CA
:0E00000000C2180E008781000FC00FE00F40F5
:00000001FF
;PIC18F4520
;CRC=07A4  CREATED="02-May-13 14:09"
