:040000008FEF03F08B
:08000800046ED8CF05F0E0CF33
:1000100006F00001E9CF0CF0EACF07F0E1CF08F0DD
:10002000E2CF09F0D9CF0AF0DACF0BF0F3CF12F01C
:10003000F4CF13F0FACF14F0F5CF15F0F6CF16F099
:10004000F7CF17F000C00EF001C00FF002C010F0A3
:1000500003C011F0F2A830EF00F0F2B203EF03F0AA
:100060000EC000F00FC001F010C002F011C003F08C
:100070000CC0E9FF07C0EAFF078E08C0E1FF09C016
:10008000E2FF0AC0D9FF0BC0DAFF12C0F3FF13C0B2
:10009000F4FF14C0FAFF15C0F5FF16C0F6FF17C035
:1000A000F7FF045006C0E0FF05C0D8FF1000F76A54
:1000B000BE0FF66E000EF7220900F5501200280C54
:1000C0000106F76AD20FF66E000EF7220900F5500E
:1000D00012001C322123242B3433433B424B3A3150
:1000E000444D152D1B2C3C2A1D22351AF76AFC0F96
:1000F000F66E000EF7220900F5501200414E494AF3
:1001000045161E26252E363D3E46004C0055F76A04
:100110001E0FF66E010EF7220900F550120016525E
:1001200026252E3D0046453E5500F76A3A0FF66EED
:10013000010EF7220900F5501200545B5B5D0E6062
:100140005D5C5227F76A540FF66E010EF722090024
:10015000F55012001E40365E4E5F547B5B7D5D7C29
:100160004C3A413C493E4A3F0E7EF76A7A0FF66EA2
:10017000010EF7220900F550120029205A0D0D0931
:10018000761B6608F76A940FF66E010EF7220900D7
:10019000F5501200717F516A526A2A6A2B6A516ABD
:1001A0001CD0526A938081A008D0523C01D005D067
:1001B00000D000D00000522AF5D7516A51500A08E9
:1001C0004CE3526A938081A008D0523C01D005D004
:1001D00000D000D00000522AF5D7036A2A501A0F27
:1001E000E96E000E0320EA6E9684000E84B4010EC0
:1001F000EF6E2A2A2A50090822E1010E2A6E2A509F
:10020000080818E3036A2A501A0FE96E000E03204B
:10021000EA6EEF520DE0010E2A5C016E010E006ED7
:10022000015204E0D8900036012EFCD700502B126A
:100230002A2AE5D72BC001F010D02A6A2B6A526A0D
:10024000938081B008D0523C01D005D000D000D0BE
:100250000000522AF5D7512AB1D70AEF02F0526AAC
:10026000536A5490F29CF29EF2BEFDD793908A900E
:10027000840E006E002EFED700D0000096948D9460
:1002800093908A809380526A525007081DE39380AE
:1002900081B0FDD751C000F05250016E04E0D890FB
:1002A0000032012EFCD7549000B0548054B002D0DC
:1002B0008D9401D08D84969454A001D0532A9380BC
:1002C00081A0FDD7522AE0D7938081B0FDD754900A
:1002D00053B054805470938081A0FDD754B002D0A5
:1002E0008D9401D08D849694938081B0FDD79684AF
:1002F000C00EF2121200526A4052D8A473D0526A51
:10030000525009080FE3036A52502FDF515C07E196
:10031000010E5224036A29DF016E016E78D0020EAD
:100320005226EED7526A5250190814E3036A52500B
:10033000C8DE515C0DE12C503F1805E0410E5224FF
:10034000016E65D005D0410E5224200F016E5FD0A2
:10035000522AE9D72C5223E0526A52500A080BE382
:10036000036A5250D4DE515C04E1210E5224016E26
:100370004ED0522AF2D7526A525015080FE3036A40
:100380005250E0DE515C07E1010E5224036ADADECE
:10039000016E016E3CD0020E5226EED722D0526A78
:1003A000525011080BE3036A5250A0DE515C04E185
:1003B0002C0E5224016E2BD0522AF2D7526A525080
:1003C00009080FE3036A5250B0DE515C07E1010EE9
:1003D0005224036AAADE016E016E19D0020E522663
:1003E000EED713D0526A525001080FE3036A5250FD
:1003F000C9DE515C07E1010E5224036AC3DE016EBF
:10040000016E05D0020E5226EED73F0E016E43EF6D
:1004100002F0C1D601C04FF04F50F00805E1010EC7
:10042000416E000E016E47D04F50E00806E1010E0C
:10043000406E416A000E016E3ED041522AE14052A8
:100440001FE14F50120803E04F50590805E1010E1B
:100450002C6E000E016E2FD04F50580811E1ED0E9A
:10046000516EFDDE3F5206E1010E3F6E040E516EED
:10047000F6DE03D03F6A516AF2DE000E016E1BD039
:100480004FC051F038D701C050F0406A50C001F061
:1004900012D0412C0ED0416A406A40520AE14F50BE
:1004A000120803E04F50590804E12C6A000E016E57
:1004B00002D0000E016E09EF03F05A500F0B006ED0
:1004C000F00E81140010816E0000818A020E006E11
:1004D000002EFED700D00000819A12008198420EB3
:1004E000006E002EFED70000420E006E002EFED7DA
:1004F000000057A0819857B081880000819C0000BF
:10050000819A5838596E0F0E591659C05AF0D5DFD6
:1005100058500F0B596E5A6ED0DF1200EA6A530E14
:10052000E96EEF500DE0060E016E006A002EFED758
:10053000012EFBD77B0E006E002EFED7EF2EF3D7D9
:100540001200542C01D003D0400E556E01D0556AD4
:10055000010E535C552655508009566E576A586EE9
:10056000BDDF120052500C0A05E0060A0BE0020A39
:100570000FE013D0576A010E586EB0DF020E536EB3
:10058000CDDF10D0010E536E020E546EDADF0AD0AA
:10059000576A100E586EA2DF05D0010E576E52C07A
:1005A00058F09CDF12000900F6CF50F0F7CF51F061
:1005B000F5CF52F0D7DF50C0F6FF51C0F7FF4F2EF6
:1005C000F2D712EF03F050BE0FD00F0E006E4F386F
:1005D00000160A0E005C03E2300E002602D05050D6
:1005E000002600C052F0BEDF0F0E4F160A0E4F5C01
:1005F00002E2300E02D0509E50504F264FC052F0B3
:10060000B1DF17EF03F04E6AF29CF29EF2BEFDD707
:1006100000D701C04EF0560EF66E060EF76E060EAF
:100620004F6EC1D74EC04FF0570E506ECCD74E52C2
:100630000DE0036A3D502D0FE96E000E0320EA6EB7
:100640004EC0EFFF3D2A0F0E3D163E2AC00EF2129D
:10065000F29230EF00F0427974653A20257800007C
:10066000000E936E8198819C819A196AF2BE198E50
:10067000F29E0F0E536E52DF19BEF28E010E456EC2
:100680004550030814E3196AF2BE198EF29E030E58
:100690005A6E13DF19BEF28E196AF2BE198EF29EDF
:1006A000050E536E3BDF19BEF28E452AE9D7196A53
:1006B000F2BE198EF29E020E5A6EFFDE19BEF28E47
:1006C000456A455003080FE3036A4550F0DC466E67
:1006D000196AF2BE198EF29E576A586EFFDE19BE75
:1006E000F28E452AEED7A6EF03F0456A3E52FEE0B1
:1006F0003E503D5C0F0B036A2D0FE96E000E032088
:10070000EA6EEFCF45F03E0645C001F012003E52C2
:1007100002E1000E01D0010E016ECCEF03F0F86A89
:10072000D09E078EEA6AE96A2A6A2B6A2C6A3D6AB9
:100730003E6A3F6A406A416A426AC150C00B0F0973
:10074000C16E070EB46E436A446A8AD7196AF2BE54
:10075000198EF29E640E536EE1DE19BEF28E936A1C
:100760008A6A9380196AF2BE198EF29E640E536EE5
:10077000D5DE19BEF28EF19CF288C00EF212B5DF02
:1007800001C044F0196AF2BE198EF29E44C052F0C4
:10079000E9DE19BEF28EBBD701520DE0A6DF01C023
:1007A00044F0196AF2BE198EF29E44C052F0DADEAD
:0A07B00019BEF28EF0D7E3D7030064
:020000040030CA
:0E00000000C2180E008781000FC00FE00F40F5
:00000001FF
;PIC18F4520
;CRC=C7F5  CREATED="25-Nis-13 17:03"
