:1000000059EF02F0F76A140FF66E000EF72209009E
:10001000F5501200280C01060C4570723A25642038
:1000200044303A2D2044313A2B0044323A59415A57
:100030002044333A4F4B5500EA6A0D0EE96EEF50FB
:100040000DE0060E016E006A002EFED7012EFBD7D2
:100050007B0E006E002EFED7EF2EF3D71200145049
:100060000F0B006EF00E81140010816E0000818A6B
:10007000020E006E002EFED700D00000819A120002
:100080008198420E006E002EFED70000420E006ED8
:10009000002EFED7000011A0819811B081880000C9
:1000A000819C0000819A1238136E0F0E131613C034
:1000B00014F0D5DF12500F0B136E146ED0DF120048
:1000C000000E936E8198819C819A0F0E0D6EB4DFA5
:1000D000010E066E0650030808E3030E146EBFDF20
:1000E000050E0D6EA9DF062AF5D7020E146EB7DFD6
:1000F000066A0650030809E3036A065083DF076EA9
:10010000116A126EBDDF062AF4D76BEF02F09486F7
:1001100094886FEF02F00E2C01D003D0400E0F6ECA
:1001200001D00F6A010E0D5C0F260F508009106E72
:10013000116A126EA5DF12000C500C0A05E0060AC7
:100140000BE0020A0FE013D0116A010E126E98DF65
:10015000020E0D6E71DF10D0010E0D6E020E0E6ECE
:10016000DADF0AD0116A100E126E8ADF05D0010E96
:10017000116E0CC012F084DF12000900F6CF07F0F8
:10018000F7CF08F0F5CF0CF0D7DF07C0F6FF08C0B7
:10019000F7FF062EF2D712000D50016A0C5C03E245
:1001A0000CC000F00CD0006A080E0E6E0C36003643
:1001B0000D50005CD8B0006E01360E2EF7D712003D
:1001C000200E07A8300E086E06C000F006AE08D05C
:1001D000001E002A00C006F02D0E086E078E078054
:1001E000015006C00CF0640E0D6ED6DF00C006F0A4
:1001F000300E0124096E06C00CF00A0E0D6ECCDF25
:10020000300E00240B6E300E01240A6E08C000F080
:10021000300E095C04E0078207BE078412D008C0D4
:1002200009F0200E086E300E0A5C04E0078007BE5D
:10023000078207D0D8A4078004E109C00AF0200E85
:10024000096E07B405D007B206D007B007D009D0B1
:1002500008C00CF071DF09C00CF06EDF0AC00CF0B2
:100260006BDF0BC00CF068DF7BEF02F00900F5528A
:100270000CE0F6CF06F0F7CF07F0F5CF0CF05CDF1F
:1002800006C0F6FF07C0F7FFF1D78CEF02F0080EAB
:10029000016E050E006E002EFED78B969496060E0C
:1002A000006E002EFED709368B98D8B09488D8A05F
:1002B0009498948682A6FED7012EEBD7050E006E89
:1002C000002EFED78B96949600009488060E006E42
:1002D000002EFED7060E006E002EFED7948682A654
:1002E000FED7016A060E006E002EFED782B801808E
:1002F0008B9694968B98949812009488050E006EB5
:10030000002EFED79486060E006E002EFED78B9828
:100310009498050E006E002EFED78B969496A00E34
:10032000096EB5DF0150089001B008809498000074
:10033000948682A6FED7050E006E002EFED700D052
:1003400000009488050E006E002EFED7000E08A057
:10035000010E016E1200D1DF0152FDE09488050EFE
:10036000006E002EFED79486060E006E002EFED77D
:100370008B989498050E006E002EFED78B9694965F
:10038000A00E096E84DF06C009F081DF07C009F006
:100390007EDF94980000948682A6FED7050E006E3C
:1003A000002EFED700D000009488050E006E002EAF
:1003B000FED79AEF02F0080E096E00C00AF094888A
:1003C000060E006E002EFED7948682A6FED782B857
:1003D000D88082A8D8900136050E006E002EFED778
:1003E00094968B96092EEBD79488060E006E002EFD
:1003F000FED78B980A50D8A494980000948682A6C1
:10040000FED7050E006E002EFED78B969496060E34
:10041000006E002EFED78B98949843EF02F06DDFAC
:100420000152FDE09488050E006E002EFED79486E2
:10043000060E006E002EFED78B989498050E006E67
:10044000002EFED78B969496A00E096E20DF06C074
:1004500009F01DDF9488050E006E002EFED79486ED
:10046000060E006E002EFED782A6FED78B989498BB
:10047000050E006E002EFED78B969496A10E096E87
:1004800006DF006A98D701C007F0949800009486B0
:1004900082A6FED7050E006E002EFED700D000000B
:1004A0009488050E006E002EFED707C001F0A3EF62
:1004B00002F0F86AD09EEA6AE96AC150C00B0F09DF
:1004C000C16E070EB46E380E056EC150C00B0F0919
:1004D000C16EC290F5D5640E0D6EAEDD18D6180E45
:1004E000F66E000EF76E050E066E47DE05C006F0CE
:1004F000180E076E65D61F0EF66E000EF76E0A0E0A
:10050000066E3BDE010E0D6E020E0E6E04DE2A0E2E
:10051000F66E000EF76EAAD6958083B0050695821A
:1005200083B2052A958483A408D00A0E066E05C0FE
:1005300007F011D7640E0D6E7FDD958683A605D07A
:100540000A0E066E6CD701C005F0020E066EFA0E9A
:0C0550000D6E72DD062EFBD7C2D7030033
:020000040030CA
:0E00000000C2180E008581000FC00FE00F40F7
:00000001FF
;PIC18F4520
;CRC=DAD4  CREATED="03-Nis-13 12:36"
