:1000000077EF01F0F76A140FF66E000EF722090081
:10001000F5501200280C0106F76A280FF66E000E44
:10002000F7220900F550120031323341343536429F
:10003000373839432A3023440C4B6579706164208A
:1000400048617A69722E2E000C426173696C616E90
:10005000207475732E2E0000EA6A0C0EE96EEF50C4
:100060000DE0060E016E006A002EFED7012EFBD7B2
:100070007B0E006E002EFED7EF2EF3D7120013502A
:100080000F0B006EF00E81140010816E0000818A4B
:10009000020E006E002EFED700D00000819A1200E2
:1000A0008198420E006E002EFED70000420E006EB8
:1000B000002EFED7000010A0819810B081880000AB
:1000C000819C0000819A1138126E0F0E121612C018
:1000D00013F0D5DF11500F0B126E136ED0DF12002C
:1000E000000E936E8198819C819A0F0E0C6EB4DF86
:1000F000010E096E0950030808E3030E136EBFDFFB
:10010000050E0C6EA9DF092AF5D7020E136EB7DFB4
:10011000096A0950030809E3036A095073DF0A6E8C
:10012000106A116EBDDF092AF4D786EF01F0F00ED8
:10013000956E956A8C6E8CEF01F00D2C01D003D07A
:10014000400E0E6E01D00E6A010E0C5C0E260E5093
:1001500080090F6E106A116EA3DF12000B500C0A9B
:1001600005E0060A0BE0020A0FE013D0106A010E48
:10017000116E96DF020E0C6E6FDF10D0010E0C6E4A
:10018000020E0D6EDADF0AD0106A100E116E88DFD3
:1001900005D0010E106E0BC011F082DF12000900B5
:1001A000F5520CE0F6CF09F0F7CF0AF0F5CF0BF0DF
:1001B000D5DF09C0F6FF0AC0F7FFF1D71200958816
:1001C000000E83B8010E0B6E958A000E83BA010EE5
:1001D0000B16958C000E83BC010E0B16958E000E2F
:1001E00083BE010E0B1404E0000E016E03D002D09A
:1001F000010E016E1200096A042A0450210862E20D
:100200000750FC0F26E2040F66EF01F095908C90EA
:1002100095928C8295948C8495968C861AD0959024
:100220008C8095928C9295948C8495968C8611D026
:1002300095908C8095928C8295948C9495968C86D2
:1002400008D095908C8095928C8295948C8495960C
:100250008C9605A008D0B3DF015204E1059006C0DA
:1002600009F0066A2ED0ABDF015226E0958883B8EC
:1002700002D00A6A11D0958A83BA03D0010E0A6EA1
:100280000BD0958C83BC03D0020E0A6E05D0958EE0
:1002900083BE02D0030E0A6E0A50040DF3500C6A9E
:1002A0000B6E036A07500B24016E0C5003220150A1
:1002B000B3DE066E058005D0072A0750040801E169
:1002C000076A046A09C001F09EEF01F0E824F76AAA
:1002D000F736E70FF66E020EF7220A00F550FA6EB7
:1002E0000800F550F96E0C021E0230024202F86A54
:1002F000D09EEA6AE96AC150C00B0F09C16E070EB1
:10030000B46E046A0590066A076AEAD6640E0C6E3B
:10031000A3DE939E8A9E0BD7380EF66E000EF76E04
:100320003EDF080E096EFA0E0C6E96DE092EFBD724
:10033000010E0C6E020E0D6E00DF5DD701C008F0DD
:10034000085214E0480EF66E000EF76E28DF010E1C
:100350000C6E020E0D6EF1DE08502A0804E12A0E22
:100360000B6EFCDE03D008C00BF0F8DEE1D7030013
:020000040030CA
:0E00000000C2180E008781000FC00FE00F40F5
:00000001FF
;PIC18F4520
;CRC=7835  CREATED="02-May-13 10:53"
