:1000000015EF00F0EA6A050EE96EEF500DE0060EFE
:10001000016E006A002EFED7012EFBD77B0E006E0C
:10002000002EFED7EF2EF3D71200F86AD09EEA6AB0
:10003000E96AC150C00B0F09C16E070EB46E939EE2
:100040008A9E0A0E056EDEDF939E8A8E0A0E056E6C
:10005000D9DF939E8A9E140E056ED4DF939E8A8EFE
:10006000140E056ECFDF939E8A9E280E056ECADFA2
:10007000939E8A8E280E056EC5DF939E8A9E500E33
:10008000056EC0DF939E8A8E500E056EBBDF939E79
:100090008A9EA00E056EB6DF939E8A8EA00E056E18
:0600A000B1DFCDD7030023
:020000040030CA
:0E00000000C2181E008781000FC00FE00F40E5
:00000001FF
;PIC18F4520
;CRC=9B36  CREATED="02-Nis-13 10:12"
