:10000000AEEF01F0F76A140FF66E000EF72209004A
:10001000F5501200280C010648554D492052482041
:100020003A25642E256420252520200054454D5076
:10003000203A25642E256420256343202000EA6AA7
:10004000150EE96EEF500DE0060E016E006A002EEF
:10005000FED7012EFBD77B0E006E002EFED7EF2EB3
:10006000F3D712001C500F0B006EF00E811400101D
:10007000816E0000818A020E006E002EFED700D035
:100080000000819A12008198420E006E002EFED769
:100090000000420E006E002EFED7000019A08198CD
:1000A00019B081880000819C0000819A1A381B6E6B
:1000B0000F0E1B161BC01CF0D5DF1A500F0B1B6E4A
:1000C0001C6ED0DF1200000E936E8198819C819A85
:1000D0000F0E156EB4DF010E0E6E0E50030808E30E
:1000E000030E1C6EBFDF050E156EA9DF0E2AF5D7B5
:1000F000020E1C6EB7DF0E6A0E50030809E3036A96
:100100000E5080DF0F6E196A1A6EBDDF0E2AF4D70B
:10011000B9EF01F0010E156E92DF94968B861200F6
:10012000146A156A146A145007081EE3948682A69E
:10013000FDD7310E006E002EFED700D0948682A629
:100140000ED0070ED8801454016E010E006E0152BD
:1001500004E0D8900036012EFCD70050151294868A
:1001600082B6FDD7142ADFD715C001F0F8EF00F0F2
:100170000E6AD0DF94968B96120E156E60DF949601
:100180008B86420E006E002EFED70000420E006EDF
:10019000002EFED7000094860F6A82B60F2A0F52F7
:1001A00003E0010E0E6E2ED0840E006E002EFED7E0
:1001B00000D0000094860F6A82B60F2A0F5203E126
:1001C000020E0E6E1FD0840E006E002EFED700D0E1
:1001D0000000106A1050030813E3036A1050040F64
:1001E000016E000E032201C012F003C013F098D775
:1001F00013C0EAFF12C0E9FF01C0EFFF102AEAD7DF
:1002000094968B86BEEF01F0162C01D003D0400EE1
:10021000176E01D0176A010E155C1726175080095A
:10022000186E196A1A6E2FDF120014500C0A05E0BE
:10023000060A0BE0020A0FE013D0196A010E1A6ECB
:1002400022DF020E156EFBDE10D0010E156E020EBF
:10025000166EDADF0AD0196A100E1A6E14DF05D096
:10026000010E196E14C01AF00EDF12000900F6CF4D
:100270000FF0F7CF10F0F5CF14F0D7DF0FC0F6FF77
:1002800010C0F7FF0E2EF2D712001550016A145C51
:1002900003E214C000F00CD0006A080E166E14368B
:1002A00000361550005CD8B0006E0136162EF7D718
:1002B0001200200E0FA8300E106E0EC000F00EAE11
:1002C00008D0001E002A00C00EF02D0E106E0F8EFA
:1002D0000F8001500EC014F0640E156ED6DF00C002
:1002E0000EF0300E0124116E0EC014F00A0E156EC1
:1002F000CCDF300E0024136E300E0124126E10C0BD
:1003000000F0300E115C04E00F820FBE0F8412D09B
:1003100010C011F0200E106E300E125C04E00F8041
:100320000FBE0F8207D0D8A40F8004E111C012F0D5
:10033000200E116E0FB405D00FB206D00FB007D04B
:1003400009D010C014F071DF11C014F06EDF12C0BC
:1003500014F06BDF13C014F068DF1200F86AD09E4F
:10036000EA6AE96AC150C00B0F09C16E070EB46E8C
:10037000AAD6640E156E63DECDDEFAD6010E156EBA
:10038000166E42DF180EF66E000EF76E090E0E6E38
:100390006DDF04C00EF0180E0F6E8BDF2E0E146E84
:1003A00044DF05C00EF0180E0F6E83DF200E146EB2
:1003B0003CDF250E146E39DF200E146E36DF200E62
:1003C000146E33DF010E156E020E166E1DDF2C0E3D
:1003D000F66E000EF76E060E0E6E48DF06C00EF0CB
:1003E000180E0F6E66DF2E0E146E1FDF07C00EF0A4
:1003F000180E0F6E5EDF200E146E17DFDF0E146E08
:1004000014DF3A0EF66E000EF76E030E0E6E2EDF40
:10041000080E0E6EFA0E156E12DE0E2EFBD7ADD73D
:020420000300D7
:020000040030CA
:0E00000000C2180E008781000FC00FE00F40F5
:00000001FF
;PIC18F4520
;CRC=EC49  CREATED="04-Nis-13 14:55"
