:10000000B9EF04F0F76A140FF66E000EF72209003C
:10001000F5501200280C01064558504B4954530026
:1000200054454D503A2025332E3166004300EA6A8C
:10003000170EE96EEF500DE0060E016E006A002EFD
:10004000FED7012EFBD77B0E006E002EFED7EF2EC3
:10005000F3D712001E500F0B006EF00E811400102B
:10006000816E0000818A020E006E002EFED700D045
:100070000000819A12008198420E006E002EFED779
:100080000000420E006E002EFED700001BA08198DB
:100090001BB081880000819C0000819A1C381D6E75
:1000A0000F0E1D161DC01EF0D5DF1C500F0B1D6E50
:1000B0001E6ED0DF1200000E936E8198819C819A93
:1000C0000F0E176EB4DF010E096E0950030808E326
:1000D000030E1E6EBFDF050E176EA9DF092AF5D7C6
:1000E000020E1E6EB7DF096A0950030809E3036AAE
:1000F000095088DF0A6E1B6A1C6EBDDF092AF4D71F
:10010000D5EF04F0030E135E09E3EA6A130EE96EFD
:10011000EF5004E001D000D0EF2EFDD71200929AEC
:10012000899A020E126EF90E136EECDF122EFBD7B7
:10013000928A020E126EF90E136EE4DF122EFBD7B6
:10014000928A1200136A135007081DE3929A899A43
:10015000020E006E002EFED700D00000D8901232A2
:1001600002E2899A01D0898A929A630E006E002E6B
:10017000FED700D0928A020E006E002EFED700D06D
:100180000000132AE0D71200126A125007081DE37C
:10019000929A899A020E006E002EFED700D00000BF
:1001A000928A0C0E006E002EFED700D00000928ABC
:1001B00080BA02D0D89001D0D8801332C70E006E1A
:1001C000002EFED700D0122AE0D713C001F0120093
:1001D0008E0E006E13C001F012C002F0036A13AE5F
:1001E00005D0011E021E022A01E1012A015209E185
:1001F00002C001F0026A080E005E015202E1006ACC
:100200000AD0D89001BE04D0023601360006F9D7D4
:1002100013BE01D0019EDFEF01F01650D8B4A5D077
:10022000226E1A50D8B4A1D0225E05E37F0E22269A
:10023000D8B09BD006D0810E225ED8A096D0D8B47C
:1002400094D022C000F0016A026A036A216A17C0D2
:1002500020F0208E18C01FF019C01EF0190E226E5B
:100260001D501E5E0DE2010E1F5E0AE2205E08E2D6
:10027000215E06E2212A202A1F2A1D501E2628D090
:100280001C501F5E12E2010E205E0FE2215E0DE2A5
:10029000212A202A1C501F261D501E2619E31F2A22
:1002A00017E1202A15E1212A13D01B508009205E76
:1002B0000EE2010E215E0BE2212A1B50800920264E
:1002C0001C501F26E9E3202AE7E1212AE5D7038015
:1002D000222E01D00BD0D8901E361F362036213664
:1002E000D8900336023601362336BAD723A006D07B
:1002F000D890013202320332233202D0000635E0B8
:1003000023BE1ED0D8901E361F36203621361D50F3
:100310001E5E07E2010E1F5E04E2205E02E2215E25
:100320001AE31C501F5E05E2010E205E02E2215E10
:1003300012E31B508009205E03E2010E215E0BE3F5
:10034000032A09E1022A07E1012A05E1002A0DE05A
:1003500001320232033217C022F01B50221A22AEA1
:1003600002D0018E06D0019E04D0006A016A026AA2
:10037000036AF5EF01F0096AD2DECC0E126EE2DEFE
:10038000440E126EDFDE095204E1FEDE01C009F008
:10039000FAD7C5DECC0E126ED5DEBE0E126ED2DEE0
:1003A000F3DE01C00AF0F0DE01C00BF00BC00DF06F
:1003B0000AC00CF00DC013F00CC012F009D700C039
:1003C00012F001C013F002C014F003C015F003C016
:1003D00019F002C018F001C017F000C016F01D6A35
:1003E0001C6A1B6A830E1A6E18D703C011F002C074
:1003F00010F001C00FF000C00EF0C80E176E17DE2F
:100400000EC000F00FC001F010C002F011C003F0E8
:10041000DAEF04F0182C01D003D0400E196E01D091
:10042000196A010E175C1926195080091A6E1B6A89
:100430001C6E21DE120016500C0A05E0060A0BE0C5
:10044000020A0FE013D01B6A010E1C6E14DE020EAE
:10045000176EEDDD10D0010E176E020E186EDADF8A
:100460000AD01B6A100E1C6E06DE05D0010E1B6E34
:1004700016C01CF000DE12000900F5520CE0F6CFA9
:1004800009F0F7CF0AF0F5CF16F0D5DF09C0F6FF77
:100490000AC0F7FFF1D712000900F6CF0AF0F7CF34
:1004A0000BF0F5CF16F0C7DF0AC0F6FF0BC0F7FF61
:1004B000092EF2D7F8EF04F01650D8B471D0006EC0
:1004C0001A50D8B46DD0002604E3810E002668E2ED
:1004D00004D07F0E005E64E363E017C01EF01B5083
:1004E0001E1A178E1B8E19501D02F4CF20F01850C3
:1004F0001C02F4CF03F0F3CF1FF01D02F3502026AF
:10050000F4501F22000E032219501C02F350202623
:10051000F4501F22000E026A0322022217501D020D
:10052000F3501F26F4500322000E022217501C0223
:10053000F3500326F4500222000E016A01221950E2
:100540001B02F3501F26F4500322000E0222012248
:1005500018501B02F3500326F4500222000E012211
:1005600017501B02F3500226F4500122002A01BE4C
:1005700005D01F360336023601360006000E1FAEC8
:100580000AD0032A02220122015005E1025003E1B0
:10059000035001E1002A1EBE018E1EAE019E04D052
:1005A000006A016A026A036A12001650B608166EE3
:1005B000036A17C01AF0178ED89017321832193202
:1005C0000332023201320032162EF6D71AAE0BD0A9
:1005D000001E011E021E031E002AD8B4012AD8B430
:1005E000022AD8B4032A1200D8B203D0EA6A1E0E37
:1005F000E96E006A016A026A036A1E6A1F6A206A5B
:10060000216A1D501C101B101A102CE0200E226EA7
:10061000D89016361736183619361E361F3620363D
:1006200021361D50215C08E11C50205C05E11B5067
:100630001F5C02E11A501E5C0FE31A501E5E1B5035
:10064000D8A01B3C1F5E1C50D8A01C3C205E1D5037
:10065000D8A01D3C215ED880003601360236033614
:10066000222ED6D71EC0EFFF1FC0ECFF20C0ECFF2C
:1006700021C0ECFF1200E9500E6E0D50106E19E013
:100680000CC019F00BC018F00AC017F009C016F022
:100690001D6A1C6A200E1B6E820E1A6E0DDF03C0CF
:1006A0000CF002C00BF001C00AF000C009F0102EDF
:1006B000E7D70CC019F00BC018F00AC017F009C03A
:1006C00016F073DF03C00CF002C00BF001C00AF09B
:1006D00000C009F00CAE0DD00E060E8A091E0A1ECF
:1006E0000B1E0C1E092AD8B40A2AD8B40B2AD8B477
:1006F0000C2A3B0E156E9A0E146ECA0E136E126AF9
:100700000A0E106E0D50D8B40E2AD882EA6A090E6D
:10071000E96E0CC019F00BC018F00AC017F009C040
:1007200016F015C01DF014C01CF013C01BF012C051
:100730001AF05ADF015000520FE10D28105C0CE056
:100740000E500CE00F0B105C01E037E20EBE35D00E
:100750000EBC04D0200E2DD0200E0E160EAA0CD0EA
:100760000E9A0D50D8A40E0600500E6E2D0E166E69
:1007700062DE0E50006E0E6A0D50105C0AE10050F1
:100780000E6E2E0E166E57DE0E50006E200E0E16DA
:10079000000E300E0EAA0DD00E9A0D50D8A40E06E3
:1007A00000500E6E2D0E166E46DE0E50006E0E6A56
:1007B000300E002600C016F03EDED89215C019F0AB
:1007C00014C018F013C017F012C016F01D6A1C6A8E
:1007D0001B6A0A0E1A6E08DF03C015F002C014F07F
:1007E00001C013F000C012F0102E8FD705EF05F0F6
:1007F000E9500E6E0D50106E19E00CC019F00BC0D0
:1008000018F00AC017F009C016F01D6A1C6A200E05
:100810001B6E820E1A6E50DE03C00CF002C00BF08D
:1008200001C00AF000C009F0102EE7D70CC019F083
:100830000BC018F00AC017F009C016F0B6DE03C0EE
:100840000CF002C00BF001C00AF000C009F00CAEC1
:100850000DD00E060E8A091E0A1E0B1E0C1E092A3A
:10086000D8B40A2AD8B40B2AD8B40C2A3B0E156E79
:100870009A0E146ECA0E136E126A0A0E106E0D5086
:10088000D8B40E2AD882EA6A090EE96E0CC019F0B3
:100890000BC018F00AC017F009C016F015C01DF003
:1008A00014C01CF013C01BF012C01AF09DDE0150E2
:1008B00000520FE10D28105C0CE00E500CE00F0B05
:1008C000105C01E03BE20EBE39D00EBC04D0200E1D
:1008D00030D0200E0E160EAA0DD00E9A0D50D8A4B0
:1008E0000E0600500E6E2D0E9EA8FED7AD6E0E5059
:1008F000006E0E6A0D50105C0BE100500E6E2E0E55
:100900009EA8FED7AD6E0E50006E200E0E16000E85
:10091000300E0EAA0ED00E9A0D50D8A40E0600501E
:100920000E6E2D0E9EA8FED7AD6E0E50006E0E6A96
:10093000300E002600509EA8FED7AD6ED89215C08E
:1009400019F014C018F013C017F012C016F01D6A89
:100950001C6A1B6A0A0E1A6E47DE03C015F002C03D
:1009600014F001C013F000C012F0102E8BD712EF5C
:1009700005F0F86AD09EEA6AE96AB886080EAF6E9A
:10098000020EB06EA60EAC6E900EAB6E00000000B4
:10099000C150C00B0F09C16E070EB46EC150C00B21
:1009A0000F09C16EC2905BEF00F0640E176E17EC7A
:1009B00000F0E1D403C008F002C007F001C006F067
:1009C00000C005F0050E176E010E186E23DD180E1F
:1009D000F66E000EF76E50DD030E176E020E186EE7
:1009E00019DD200EF66E000EF76E060E096E54D558
:1009F000020EE96E08C00CF007C00BF006C00AF04A
:100A000005C009F0010E0D6E36D6020EE96E08C063
:100A10000CF007C00BF006C00AF005C009F0010E8B
:100A20000D6EE6D60A0E9EA8FED7AD6EDF0E166ED0
:100A300002DD2C0EF66E000EF76E1EDDBAD7030037
:020000040030CA
:0E00000000C2180E008581000FC00FE00F40F7
:00000001FF
;PIC18F4520
;CRC=6565  CREATED="02-Nis-13 19:22"
