:100000006EEF05F0F76A140FF66E000EF722090086
:10001000F5501200000000000000005F0000000327
:10002000000300143E143E14242A7F2A124333088E
:10003000666136495522500005030000001C22412C
:10004000000041221C0014083E081408083E08085D
:100050000050300000080808080800606000002018
:10006000100804023E5149453E0004027F004261EF
:1000700051494622414949361814127F10274545F7
:1000800045393E4949493201017109073649494913
:1000900036264949493E00363600000056360000F3
:1000A00008142241001414141414004122140802EC
:1000B000015109063E4159555E7E0909097E7F4975
:1000C0004949363E414141227F4141413E7F4949B4
:1000D00049417F090909013E4141493A7F08080821
:1000E0007F00417F4100304040403F7F0814224163
:1000F0007F404040407F020C027F7F0204087F3E29
:100100004141413E7F090909061E2121215E7F09E7
:1001100009097600F76A240FF66E010EF72209002E
:10012000F5501200264949493201017F01013F4043
:1001300040403F1F2040201F7F2010207F41221C75
:10014000224107087008076151494543007F41007B
:100150000002040810200000417F00040201020494
:100160004040404040000102040020545454787F35
:10017000444444383844444444384444447F385424
:1001800054541804047E0505085454543C7F080454
:10019000047800447D40002040443D007F10284406
:1001A0000000417F40007C047804787C08040478D7
:1001B00038444444387C14141408081414147C0083
:1001C0007C080404485454542004043F44443C40F4
:1001D00040207C1C2040201C3C4030403C442810E7
:1001E00028440C5050503C4464544C440008364160
:1001F0004100007F00004141360800020102040274
:100200000401145303E093988A8802D093968A8657
:1002100093928A92956A15C48CFF000093948A8405
:1002200000D000D0000093948A9493968A96939875
:100230008A98000112000401106B040E0F6F020E69
:10024000126F040E116F0D51FF0DF3CF0EF4146BEE
:10025000136B145101081AE310C403F00F510F2B54
:10026000D8B4102BE96E03C0EAFF0EC4EFFF12C42E
:1002700003F01151112BD8B4122BE96E03C0EAFF21
:100280000EC4EFFF132BD8B4142BE3D70001F7EF04
:1002900001F00401106B040E0F6F020E126F040EBA
:1002A000116F0D6B0D5107084EE393908A90146BFC
:1002B000400E156F0001A4DF010E0401146F400E03
:1002C000156F00019DDF04010D51B809136F146B08
:1002D000156F000195DF04010D51B809136F010E70
:1002E000146F13C415F400018BDF93908A8004010E
:1002F0000E6B0E513F0825E310C403F00F510F2B76
:10030000D8B4102BE96E03C0EAFFEFCF13F4146BDF
:1003100013C415F4000174DF040112C403F0115179
:10032000112BD8B4122BE96E03C0EAFFEFCF13F400
:10033000010E146F13C415F4000162DF04010E2BCB
:10034000D8D70D2BAFD700011200939A8A8A9394C5
:100350008A9493968A9693988A9893908A900401A7
:10036000146BC00E156F00014BDF010E0401146FFA
:10037000C00E156F000144DF0401146B400E156FB1
:1003800000013EDF010E0401146F400E156F0001E5
:1003900037DF0401146BB80E156F000131DF010E59
:1003A0000401146FB80E156F00012ADF04010C2D33
:1003B0000ED0146B3F0E156F000122DF010E0401F9
:1003C000146F3F0E156F00011BDF0DD00401146B7D
:1003D0003E0E156F000114DF010E0401146F3E0E76
:1003E000156F00010DDF04010D6B000124D751DFF3
:1003F0008CEF05F004012E6B29312D6F2D332D3339
:100400001F0E2D172D372E372D372E372D372E3720
:100410002D372E372D372E372D372E37C00E2D176F
:1004200028512D27000E2E2328513F080DE2040EDF
:100430002D252F6F020E2E21306F400E2F5D2B6F5A
:10044000000E30592C6F06D0040E2D252B6F000E98
:100450002E212C6F2A5315E02CC403F02BC4E9FF86
:100460002CC4EAFF2951070B2F6F010E006E2F518C
:10047000016E04E0D8900036012EFCD70050EF1238
:1004800015D02CC403F02BC4E9FF2CC4EAFF29517A
:10049000070B2F6F010E006E2F51016E04E0D890F4
:1004A0000036012EFCD70050FF0AEF1600011200A3
:1004B000010E0401216F226F276B18511A5D286FFE
:1004C000285128AF03D0000ED8802855036A1F6F2B
:1004D00003C020F419511B5D286F285128AF03D0A9
:1004E000000ED8802855036A1D6F03C01EF41851F2
:1004F0001A5D01E2216919511B5D01E222691E5159
:10050000205D3BE303E11D511F5D37E3D8901D37AC
:100510001E371F511D5D006E20511E5900C023F46F
:10052000246F1F51235D256F20512459266F2053BE
:1005300003E127511F5D20E318C428F419C429F4EE
:100540001CC42AF4000156DF040124BF01D008D0E6
:100550001D5123271E51242321511825186F0AD01D
:10056000255123272651242321511825186F225164
:100570001925196F272BDBD736D0D8901F37203796
:100580001D511F5D006E1E51205900C023F4246FC1
:100590001D51235D256F1E512459266F1E5303E103
:1005A00027511D5D20E318C428F419C429F41CC484
:1005B0002AF400011FDF040124BF01D008D01F511D
:1005C00023272051242322511925196F0AD02551A0
:1005D00023272651242321511825186F225119252C
:1005E000196F272BDBD700011200040110532EE0F6
:1005F0000E510C5D05E20CC413F40EC414F404D0C7
:100600000EC413F40CC414F40F510D5D05E20DC4B7
:1006100015F40FC416F404D00FC415F40DC416F469
:100620001351145D12E315C412F41251165D0BE35D
:1006300013C428F412C429F411C42AF40001DADE28
:100640000401122BF2D7132BEBD72ED00CC418F4C5
:100650000DC419F40EC41AF40DC41BF411C41CF417
:10066000000126DF0CC418F40FC419F40EC41AF4E8
:100670000FC41BF411C41CF41BDF0CC418F40DC40C
:1006800019F40CC41AF40FC41BF411C41CF410DFC9
:100690000EC418F40DC419F40EC41AF40FC41BF4DC
:1006A00011C41CF405DF0401000198EF05F00FC42C
:1006B00003F004010EC4E9FF0FC4EAFFEF52D8B4FF
:1006C000C6D00FC403F00EC4E9FF0FC4EAFFEF5019
:1006D000520821E30FC403F00EC4E9FF0FC4EAFF80
:1006E000200EEF5C050DF350036A1B6F040EEA6EDB
:1006F000160EE96E1F6B1BC41EF4050E016EF76A21
:100700001B5100017FDC0A000900F5CFEEFF012E2E
:10071000FBD731D004010FC403F00EC4E9FF0FC4AE
:10072000EAFFEF507E0821E30FC403F00EC4E9FF97
:100730000FC4EAFF530EEF5C050DF350036A1B6F05
:10074000040EEA6E160EE96E1F6B1BC41EF4050E36
:10075000016EF76A1B510001DDDC0A000900F5CFCC
:10076000EEFF012EFBD707D00401166B176B186B39
:10077000196B1A6B00010FC403F004010E51E96EEE
:1007800003C0EAFFEF500A0A000103E0070A09E08C
:100790000BD004011051070DF350010F0D2750D05D
:1007A000000104010C6B4CD004011051050DF350F5
:1007B0000C257F0806E20C6B1051070DF350010F5A
:1007C0000D27126B125104083BE3136B13510608FB
:1007D00033E3036A1251160FE96E040E0320EA6E2A
:1007E000EFCF1BF41BC400F01351016E04E0D8904E
:1007F0000032012EFCD700A01DD0146B1051145DE7
:1008000019E2156B1051155D13E215510C251B6F84
:1008100013511003F3500D2514251C6F1BC428F42D
:10082000296F11C42AF40001E5DD0401152BEAD774
:10083000142BE4D7132BCAD7122B10510C27C2D775
:100840000E2BD8B40F2B0C2B000131D70401000163
:100850001200006A016A04011551D89016B10026F1
:100860000032013216B300260032013216B50026DE
:100870000032013216B700260032013216B90026C6
:100880000032013216BB00260032013216BD0026AE
:100890000032013216BF0026003201320001120080
:1008A0000401116B0EC412F4010ED8800E55136FA3
:1008B0000F5361E011510C5D146F12510D25156F2E
:1008C00011510C25166F12510D25176F14C418F411
:1008D00015C419F416C41AF41B6F10C41CF40001DB
:1008E000E7DD040111510C5D146F12510D5D156FA0
:1008F00011510C25166F12510D5D176F14C418F4A9
:1009000015C419F416C41AF41B6F10C41CF40001AA
:10091000CFDD040112510C5D146F11510D25156FBF
:1009200012510C25166F11510D25176F14C418F4B0
:1009300015C419F416C41AF41B6F10C41CF400017A
:10094000B7DD040112510C5D146F11510D5D156F6F
:1009500012510C25166F11510D5D176F14C418F448
:1009600015C419F416C41AF41B6F10C41CF400014A
:100970009FDD70D004010C511125146F0D5112250B
:10098000156F14C428F4296F10C42AF4000132DD55
:1009900004010C511225146F0D511125156F14C44B
:1009A00028F4296F10C42AF4000124DD0401115138
:1009B0000C5D146F0D511225156F14C428F4296FA6
:1009C00010C42AF4000116DD040112510C5D146FED
:1009D0000D511125156F14C428F4296F10C42AF481
:1009E000000108DD04010C511225146F11510D5D39
:1009F000156F14C428F4296F10C42AF40001FADC1E
:100A000004010C511125146F12510D5D156F14C4A2
:100A100028F4296F10C42AF40001ECDC0401115100
:100A20000C5D146F12510D5D156F14C428F4296FFD
:100A300010C42AF40001DEDC040112510C5D146FB5
:100A400011510D5D156F14C428F4296F10C42AF4D8
:100A50000001D0DC040113BF01D00ED01151112BC5
:100A6000146F020E156F14C416F40001F2DE01506B
:100A7000030F0401132711D01151112B146F1251C0
:100A80001207145D146F020E156F14C416F40001E2
:100A9000E0DE0150050F040113271151800A006E9A
:100AA0001251800A005CD8B403D7D8A001D7000146
:100AB0001200040EEA6E0C0EE96EEF500DE0060E09
:100AC000016E006A002EFED7012EFBD77B0E006E52
:100AD000002EFED7EF2EF3D704EF06F0F86AD09E73
:100AE000EA6AE96AC150C00B0F09C16E070EB46E05
:100AF000450E0401046F780E056F700E066F6B0EC5
:100B0000076F690E086F740E096F730E0A6F0B6B17
:100B1000010E0C6F000119D404010C6B0D6B7F0EDC
:100B20000E6F3F0E0F6F106B010E116F00015DD540
:100B3000050E04010C6F030E0D6F040E0F6F0E6F88
:100B4000030E106F010E116F0001B1DD050E0401DF
:100B50000C6F1C0E0D6F040E0F6F0E6F020E106FD8
:100B6000010E116F0001A3DD050E04010C6F2C0EA8
:100B70000D6F040E0F6F0E6F010E106F116F0001DD
:100B800096DD640E04010C6F2B0E0D6F050E0E6FBB
:100B90000F6B010E106F000183DE640E04010C6FF9
:100BA0002B0E0D6F0A0E0E6F0F6B010E106F0001F2
:100BB00077DE640E04010C6F2B0E0D6F0F0E0E6F9F
:100BC0000F6B010E106F00016BDE640E0401186FD5
:100BD0001C0E196F640E1A6F3A0E1B6F010E1C6FFC
:100BE000000166DC550E0401186F2B0E196F730E91
:100BF0001A6F2B0E1B6F010E1C6F000159DC640E67
:100C000004010C6F000155D749EC01F085D70300B2
:020000040030CA
:0E00000000C2180E008581000FC00FE00F40F7
:00000001FF
;PIC18F4520
;CRC=6990  CREATED="02-Nis-13 19:36"
