:10000000D5EF00F0F76A140FF66E000EF722090024
:10001000F5501200280C01067777772E6578706B03
:100020006974732E636F6D00EA6A350EE96EEF50E6
:100030000DE0060E016E006A002EFED7012EFBD7E2
:100040007B0E006E002EFED7EF2EF3D712003C5031
:100050000F0B006EF00E81140010816E0000818A7B
:10006000020E006E002EFED700D00000819A120012
:100070008198420E006E002EFED70000420E006EE8
:10008000002EFED7000039A0819839B08188000089
:10009000819C0000819A3A383B6E0F0E3B163BC0A4
:1000A0003CF0D5DF3A500F0B3B6E3C6ED0DF1200B8
:1000B000000E936E8198819C819A0F0E356EB4DF8D
:1000C000010E326E3250030808E3030E3C6EBFDFB0
:1000D000050E356EA9DF322AF5D7020E3C6EB7DF6A
:1000E000326A3250030809E3036A32508BDF336E01
:1000F000396A3A6EBDDF322AF4D727EF01F0362C89
:1001000001D003D0400E376E01D0376A010E355C46
:10011000372637508009386E396A3A6EA9DF1200E7
:1001200034500C0A05E0060A0BE0020A0FE013D077
:10013000396A010E3A6E9CDF020E356E75DF10D003
:10014000010E356E020E366EDADF0AD0396A100EF5
:100150003A6E8EDF05D0010E396E34C03AF088DF7A
:1001600012000900F5520CE0F6CF32F0F7CF33F071
:10017000F5CF34F0D5DF32C0F6FF33C0F7FFF1D74B
:100180002FEF01F0EF520FE0EACF33F0E9CF32F07A
:10019000EFCF34F0C5DF33C0EAFF32C0E9FFE92A10
:1001A000D8B4EA2AEFD739EF01F0F86AD09EEA6AAC
:1001B000E96AC150C00B0F09C16E070EB46E310E53
:1001C000066E360E076E780E086E320E096E200E21
:1001D0000A6E4B0E0B6E610E0C6E720E0D6E610E82
:1001E0000E6E6B0E0F6E740E106E650E116E720E2B
:1001F000126E200E136E4C0E146E430E156E440ECE
:10020000166E200E176E440E186E650E196E6D0E6A
:100210001A6E6F0E1B6E200E1C6E1D6E1E6E1F6EF4
:10022000206E216E226E236E246E256E266E276E42
:10023000286E296E2A6E2B6E2C6E2D6E2E6A056A24
:10024000060E046E2F6A316A050E306E31D7640EC9
:10025000356EEADE180EF66E000EF76E82D7010ECE
:10026000356E020E366E4BDF31C0EAFF30C0E9FF5B
:1002700089D72F5204E1302AD8B4312A04D0305023
:10028000D8B431063006040E305C326E000E3158A0
:10029000336E335203E132500F0802E2010E2F6E2B
:1002A000040E305C326E000E3158336E325206E16D
:1002B000335204E1316A050E306E2F6A020E326E3F
:0E02C000FA0E356EB1DE322EFBD7C9D7030021
:020000040030CA
:0E00000000C2181E008781000FC00FE00F40E5
:00000001FF
;PIC18F4520
;CRC=F475  CREATED="02-Nis-13 11:43"
