:040000003BEF01F0E1
:08000800046ED8CF05F0E0CF33
:1000100006F00001E9CF0CF0EACF07F0E1CF08F0DD
:10002000E2CF09F0D9CF0AF0DACF0BF0F3CF12F01C
:10003000F4CF13F0FACF14F0F5CF15F0F6CF16F099
:10004000F7CF17F000C00EF001C00FF002C010F0A3
:1000500003C011F09DAA30EF00F09EBA61EF00F0EE
:100060000EC000F00FC001F010C002F011C003F08C
:100070000CC0E9FF07C0EAFF078E08C0E1FF09C016
:10008000E2FF0AC0D9FF0BC0DAFF12C0F3FF13C0B2
:10009000F4FF14C0FAFF15C0F5FF16C0F6FF17C035
:1000A000F7FF045006C0E0FF05C0D8FF1000F76A54
:1000B000BE0FF66E000EF7220900F5501200280C54
:1000C000010695928C729EAAFED7AE50580802E1A6
:1000D00095908C709E9A30EF00F07777772E657848
:1000E000706B6974732E636F6D20200056657269A2
:1000F00020476F6E646572696C646920202000007F
:10010000426F7374612062656B6C69796F722E2027
:100110000000EA6A1C0EE96EEF500DE0060E016E5B
:10012000006A002EFED7012EFBD77B0E006E002E3C
:10013000FED7EF2EF3D7120023500F0B006EF00EF8
:1001400081140010816E0000818A020E006E002E64
:10015000FED700D00000819A12008198420E006EF6
:10016000002EFED70000420E006E002EFED70000CB
:1001700020A0819820B081880000819C0000819A95
:100180002138226E0F0E221622C023F0D5DF215017
:100190000F0B226E236ED0DF1200000E936E81983B
:1001A000819C819A0F0E1C6EB4DF010E196E1950DE
:1001B000030808E3030E236EBFDF050E1C6EA9DFE4
:1001C000192AF5D7020E236EB7DF196A19500308F2
:1001D00009E3036A19506BDF1A6E206A216EBDDFD6
:1001E000192AF4D752EF01F01D2C01D003D0400E94
:1001F0001E6E01D01E6A010E1C5C1E261E50800958
:100200001F6E206A216EA9DF12001B500C0A05E048
:10021000060A0BE0020A0FE013D0206A010E216EDD
:100220009CDF020E1C6E75DF10D0010E1C6E020EDC
:100230001D6EDADF0AD0206A100E216E8EDF05D027
:10024000010E206E1BC021F088DF31EF01F00900A4
:10025000F5520CE0F6CF19F0F7CF1AF0F5CF1BF0FE
:10026000D4D719C0F6FF1AC0F7FFF1D712009EA825
:10027000FED7AD6E1200F86AD09E078EEA6AE96A70
:10028000B886C30EAF6E090EB06EA60EAC6E900EA1
:10029000AB6E00000000C150C00B0F09C16E070E0D
:1002A000B46E7BD7640E1C6E34DF010E1C6E1D6EA7
:1002B0009BDFDA0EF66E000EF76EC9DF0C0E196EBC
:1002C000FA0E1C6E26DF192EFBD7958E83AE12D048
:1002D000010E1C6E1D6E88DFEC0EF66E000EF76EC2
:1002E000B6DF550EC4DF550EC2DF550EC0DF580E07
:1002F000BEDF0FD0010E1C6E1D6E76DF000EF66E97
:10030000010EF76EA4DF990EB2DF990EB0DF990EE1
:10031000AEDF020E196EFA0E1C6EFBDE192EFBD735
:04032000D4D703002B
:020000040030CA
:0E00000000C2180E008781000FC00FE00F40F5
:00000001FF
;PIC18F4520
;CRC=2293  CREATED="25-Nis-13 16:22"
