:10000000E7EF08F0F76A140FF66E000EF72209000A
:10001000F5501200000000000000005F0000000327
:10002000000300143E143E14242A7F2A124333088E
:10003000666136495522500005030000001C22412C
:10004000000041221C0014083E081408083E08085D
:100050000050300000080808080800606000002018
:10006000100804023E5149453E0004027F004261EF
:1000700051494622414949361814127F10274545F7
:1000800045393E4949493201017109073649494913
:1000900036264949493E00363600000056360000F3
:1000A00008142241001414141414004122140802EC
:1000B000015109063E4159555E7E0909097E7F4975
:1000C0004949363E414141227F4141413E7F4949B4
:1000D00049417F090909013E4141493A7F08080821
:1000E0007F00417F4100304040403F7F0814224163
:1000F0007F404040407F020C027F7F0204087F3E29
:100100004141413E7F090909061E2121215E7F09E7
:1001100009097600F76A240FF66E010EF72209002E
:10012000F5501200264949493201017F01013F4043
:1001300040403F1F2040201F7F2010207F41221C75
:10014000224107087008076151494543007F41007B
:100150000002040810200000417F00040201020494
:100160004040404040000102040020545454787F35
:10017000444444383844444444384444447F385424
:1001800054541804047E0505085454543C7F080454
:10019000047800447D40002040443D007F10284406
:1001A0000000417F40007C047804787C08040478D7
:1001B00038444444387C14141408081414147C0083
:1001C0007C080404485454542004043F44443C40F4
:1001D00040207C1C2040201C3C4030403C442810E7
:1001E00028440C5050503C4464544C440008364160
:1001F0004100007F00004141360800020102040274
:100200000401305303E093988A8802D093968A863B
:1002100093928A92956A31C48CFF000093948A84E9
:1002200000D000D0000093948A9493968A96939875
:100230008A980001120004012C6B040E2B6F020E31
:100240002E6F040E2D6F2951FF0DF3CF2AF4306B62
:100250002F6B305101081AE32CC403F02B512B2BC8
:10026000D8B42C2BE96E03C0EAFF2AC4EFFF2EC4DA
:1002700003F02D512D2BD8B42E2BE96E03C0EAFFCD
:100280002AC4EFFF2F2BD8B4302BE3D70001F7EFB0
:1002900001F004012C6B040E2B6F020E2E6F040E66
:1002A0002D6F296B295107084EE393908A90306B8C
:1002B000400E316F0001A4DF010E0401306F400ECB
:1002C000316F00019DDF04012951B8092F6F306B98
:1002D000316F000195DF04012951B8092F6F010E1C
:1002E000306F2FC431F400018BDF93908A800401BA
:1002F0002A6B2A513F0825E32CC403F02B512B2BEA
:10030000D8B42C2BE96E03C0EAFFEFCF2FF4306B8B
:100310002FC431F4000174DF04012EC403F02D5109
:100320002D2BD8B42E2BE96E03C0EAFFEFCF2FF4AC
:10033000010E306F2FC431F4000162DF04012A2B5B
:10034000D8D7292BAFD700011200939A8A8A9394A9
:100350008A9493968A9693988A9893908A900401A7
:10036000306BC00E316F00014BDF010E0401306FA6
:10037000C00E316F000144DF0401306B400E316F5D
:1003800000013EDF010E0401306F400E316F0001AD
:1003900037DF0401306BB80E316F000131DF010E21
:1003A0000401306FB80E316F00012ADF0401282DDF
:1003B0000ED0306B3F0E316F000122DF010E0401C1
:1003C000306F3F0E316F00011BDF0DD00401306B29
:1003D0003E0E316F000114DF010E0401306F3E0E3E
:1003E000316F00010DDF0401296B000124D751DFBB
:1003F00010EF09F0030E0401325F0AE3040EEA6E07
:10040000320EE96EEF5004E001D000D0EF2EFDD7A0
:1004100000011200929A899A020E0401316FF90EBE
:10042000326F0001E7DF0401312FF9D7928A020E03
:10043000316FF90E326F0001DDDF0401312FF9D782
:10044000928A000112000401326B325107081DE349
:10045000929A899A020E006E002EFED700D00000FC
:10046000D890313302E2899A01D0898A929A630E38
:10047000006E002EFED700D0928A020E006E002E73
:10048000FED700D00000322BE0D70001120004019B
:10049000316B315107081DE3929A899A020E006E62
:1004A000002EFED700D00000928A0C0E006E002EA7
:1004B000FED700D00000928A80BA02D0D89001D036
:1004C000D8803233C70E006E002EFED700D0312BFD
:1004D000E0D732C401F0000112008E0E006E32C46B
:1004E00001F031C402F0036A01AE05D0011E021E04
:1004F000022A01E1012A015209E102C001F0026A67
:10050000080E005E015202E1006A0DD0D89001BED3
:1005100004D0023601360006F9D7040132AF02D00A
:10052000000101D0019E00018CEF03F00401355160
:10053000D8B4A5D0416F3951D8B4A1D0415F05E3FB
:100540007F0E4127D8B09BD006D0810E415FD8A046
:1005500096D0D8B494D041C400F0016A026A036A0C
:10056000406B36C43FF43F8F37C43EF438C43DF48B
:10057000190E416F3C513D5F0DE2010E3E5F0AE2F4
:100580003F5F08E2405F06E2402B3F2B3E2B3C5191
:100590003D2728D03B513E5F12E2010E3F5F0FE244
:1005A000405F0DE2402B3F2B3B513E273C513D2706
:1005B00019E33E2B17E13F2B15E1402B13D03A51A5
:1005C00080093F5F0EE2010E405F0BE2402B3A5183
:1005D00080093F273B513E27E9E33F2BE7E1402BD2
:1005E000E5D70380412F01D00BD0D8903D373E375F
:1005F0003F374037D8900336023601364237BAD7F4
:1006000042A106D0D890013202320332423302D0E6
:10061000000635E042BF1ED0D8903D373E373F3709
:1006200040373C513D5F07E2010E3E5F04E23F5F11
:1006300002E2405F1AE33B513E5F05E2010E3F5F7D
:1006400002E2405F12E33A5180093F5F03E2010E8C
:10065000405F0BE3032A09E1022A07E1012A05E1D1
:10066000002A0DE001320232033236C441F43A511D
:10067000411B41AF02D0018E06D0019E04D0006A1A
:10068000016A026A036A0001A4EF03F0040EEA6E35
:10069000310EE96EEF500DE0060E016E006A002E7D
:1006A000FED7012EFBD77B0E006E002EFED7EF2E5D
:1006B000F3D7B1EF03F00401286B0001ABDECC0EE1
:1006C0000401316F0001BFDE440E0401316F0001EF
:1006D000BADE0401285305E10001D9DE01C028F487
:1006E000F8D7000197DECC0E0401316F0001ABDEBC
:1006F000BE0E0401316F0001A6DEC9DE01C029F47F
:10070000C6DE01C02AF42AC42CF429C42BF42CC45C
:1007100032F42BC431F4E1D600C031F401C032F41C
:1007200002C033F403C034F403C038F402C037F419
:1007300001C036F400C035F404013C6B3B6B3A6BEE
:10074000830E396F0001F2D603C030F402C02FF4DB
:1007500001C02EF400C02DF4C80E0401316F000159
:1007600095D72DC400F02EC401F02FC402F030C480
:1007700003F012EF09F004013551D8B471D0006EC6
:100780003951D8B46DD0002604E3810E002668E20A
:1007900004D07F0E005E64E363E036C43DF43A515A
:1007A0003D1B368F3A8F38513C03F4CF3FF437511D
:1007B0003B03F4CF03F0F3CF3EF43C03F3503F2769
:1007C000F4503E23000E032238513B03F3503F27E1
:1007D000F4503E23000E026A0322022236513C03EB
:1007E000F3503E27F4500322000E022236513B0301
:1007F000F3500326F4500222000E016A0122385100
:100800003A03F3503E27F4500322000E0222012245
:1008100037513A03F3500326F4500222000E01220E
:1008200036513A03F3500226F4500122002A01BE49
:1008300005D03E370336023601360006000E3EAFC5
:100840000AD0032A02220122015005E1025003E1ED
:10085000035001E1002A3DBF018E3DAF019E04D04F
:10086000006A016A026A036A0001C9EF04F0040128
:100870003551B608356F036A36C439F4368FD890CF
:100880003633373338330332023201320032352FF8
:10089000F6D739AF0BD0001E011E021E031E002A20
:1008A000D8B4012AD8B4022AD8B4032A0001DEEF52
:1008B00004F0D8B204D0040EEA6E3D0EE96E006A70
:1008C000016A026A036A04013D6B3E6B3F6B406B39
:1008D0003C513B113A1139112CE0200E416FD89058
:1008E00035373637373738373D373E373F3740377C
:1008F0003C51405D08E13B513F5D05E13A513E5DB1
:1009000002E139513D5D0FE339513D5F3A51D8A0C5
:100910003A3D3E5F3B51D8A03B3D3F5F3C51D8A0A4
:100920003C3D405FD8800036013602360336412F09
:10093000D6D73DC4EFFF3EC4ECFF3FC4ECFF40C43C
:10094000ECFF0001120027C4EAFF26C4E9FF0401FE
:1009500035C4EFFFE92AD8B4EA2AEF6A262BD8B4C7
:10096000272B00011200E95004012D6F2C512F6F2D
:100970001BE02BC438F42AC437F429C436F428C445
:1009800035F43C6B3B6B200E3A6F820E396F0001E1
:10099000F2D603C02BF402C02AF401C029F400C02F
:1009A00028F404012F2FE5D72BC438F42AC437F4D8
:1009B00029C436F428C435F4000159D703C02BF4F8
:1009C00002C02AF401C029F400C028F404012BAFAE
:1009D0000DD02D072D8B281F291F2A1F2B1F282BD9
:1009E000D8B4292BD8B42A2BD8B42B2B3B0E346F78
:1009F0009A0E336FCA0E326F316B0A0E2F6F2C5165
:100A0000D8B42D2BD882040EEA6E280EE96E2BC4C2
:100A100038F42AC437F429C436F428C435F434C46D
:100A20003CF433C43BF432C43AF431C439F4000129
:100A300040DF0150005213E104012C292F5DD8A49E
:100A400002D000010CD02D510DE00F0B2F5D01E005
:100A500040E22DBF3ED02DBD05D0200E34D0200E5B
:100A600004012D172DAB0ED02D9B2C51D8A42D0792
:100A700000502D6F2D0E356F000165DF04012D51E3
:100A8000006E2D6B2C512F5D0CE100502D6F2E0E42
:100A9000356F000158DF04012D51006E200E2D1717
:100AA000000E300E2DAB0FD02D9B2C51D8A42D074E
:100AB00000502D6F2D0E356F000145DF04012D51C3
:100AC000006E2D6B300E002600C035F400013BDFB8
:100AD0000401D89234C438F433C437F432C436F441
:100AE00031C435F43C6B3B6B3A6B0A0E396F000135
:100AF000E0DE03C034F402C033F401C032F400C0BD
:100B000031F404012F2F7ED700012EEF09F00401EC
:100B10004A6B4531496F493349331F0E49174937ED
:100B20004A3749374A3749374A3749374A374937C1
:100B30004A3749374A37C00E491744514927000EF2
:100B40004A2344513F080DE2040E49254B6F020E23
:100B50004A214C6F400E4B5D476F000E4C59486F59
:100B600006D0040E4925476F000E4A21486F4653B0
:100B700015E048C403F047C4E9FF48C4EAFF455103
:100B8000070B4B6F010E006E4B51016E04E0D890C5
:100B90000036012EFCD70050EF1215D048C403F0E8
:100BA00047C4E9FF48C4EAFF4551070B4B6F010EEC
:100BB000006E4B51016E04E0D8900036012EFCD738
:100BC0000050FF0AEF1600011200010E04013D6FF4
:100BD0003E6F436B3451365D446F445144AF03D094
:100BE000000ED8804455036A3B6F03C03CF4355176
:100BF000375D446F445144AF03D0000ED880445554
:100C0000036A396F03C03AF43451365D01E23D693D
:100C10003551375D01E23E693A513C5D3BE303E10A
:100C200039513B5D37E3D89039373A373B51395D1D
:100C3000006E3C513A5900C03FF4406F3B513F5D5C
:100C4000416F3C514059426F3C5303E143513B5D7E
:100C500020E334C444F435C445F438C446F40001F8
:100C600056DF040140BF01D008D039513F273A5127
:100C700040233D513425346F0AD041513F27425122
:100C800040233D513425346F3E513525356F432B7C
:100C9000DBD736D0D8903B373C3739513B5D006EBF
:100CA0003A513C5900C03FF4406F39513F5D416FAC
:100CB0003A514059426F3A5303E14351395D20E3C1
:100CC00034C444F435C445F438C446F400011FDF8D
:100CD000040140BF01D008D03B513F273C51402385
:100CE0003E513525356F0AD041513F2742514023AF
:100CF0003D513425346F3E513525356F432BDBD7BD
:100D00000001120004012C532EE02A51285D05E257
:100D100028C42FF42AC430F404D02AC42FF428C4E1
:100D200030F42B51295D05E229C431F42BC432F48F
:100D300004D02BC431F429C432F42F51305D12E3B6
:100D400031C42EF42E51325D0BE32FC444F42EC473
:100D500045F42DC446F40001DADE04012E2BF2D74F
:100D60002F2BEBD72ED028C434F429C435F42AC451
:100D700036F429C437F42DC438F4000126DF28C422
:100D800034F42BC435F42AC436F42BC437F42DC400
:100D900038F41BDF28C434F429C435F428C436F4ED
:100DA0002BC437F42DC438F410DF2AC434F429C41A
:100DB00035F42AC436F42BC437F42DC438F405DFD7
:100DC0000401000112002BC403F004012AC4E9FF4E
:100DD0002BC4EAFFEF52D8B4C8D02BC403F02AC406
:100DE000E9FF2BC4EAFFEF50520822E32BC403F0C3
:100DF0002AC4E9FF2BC4EAFF200EEF5C050DF35077
:100E0000036A376F040EEA6E320EE96E3B6B37C42D
:100E10003AF4050E016EF76A3751000102EC00F05A
:100E20000A000900F5CFEEFF012EFBD732D00401F6
:100E30002BC403F02AC4E9FF2BC4EAFFEF507E085D
:100E400022E32BC403F02AC4E9FF2BC4EAFF530EAC
:100E5000EF5C050DF350036A376F040EEA6E320E35
:100E6000E96E3B6B37C43AF4050E016EF76A3751F1
:100E700000018AEC00F00A000900F5CFEEFF012E18
:100E8000FBD707D00401326B336B346B356B366B99
:100E900000012BC403F004012A51E96E03C0EAFFEC
:100EA000EF500A0A000103E0070A09E00BD0040131
:100EB0002C51070DF350010F292750D000010401D8
:100EC000286B4CD004012C51050DF35028257F08C8
:100ED00006E2286B2C51070DF350010F29272E6BCA
:100EE0002E5104083BE32F6B2F51060833E3036AAE
:100EF0002E51320FE96E040E0320EA6EEFCF37F465
:100F000037C400F02F51016E04E0D8900032012E5A
:100F1000FCD700A01DD0306B2C51305D19E2316B35
:100F20002C51315D13E231512825376F2F512C039D
:100F3000F35029253025386F37C444F4456F2DC44C
:100F400046F40001E4DD0401312BEAD7302BE4D76D
:100F50002F2BCAD72E2B2C512827C2D72A2BD8B4F7
:100F60002B2B282B00012FD7040100011200006A4F
:100F7000016A04013151D89032B1002600320132A9
:100F800032B300260032013232B50026003201327F
:100F900032B700260032013232B900260032013267
:100FA00032BB00260032013232BD0026003201324F
:100FB00032BF0026003201320001120004012D6B05
:100FC0002AC42EF4010ED8802A552F6F2B5361E0CE
:100FD0002D51285D306F2E512925316F2D51282537
:100FE000326F2E512925336F30C434F431C435F4B7
:100FF00032C436F4376F2CC438F40001E6DD040146
:101000002D51285D306F2E51295D316F2D512825CE
:10101000326F2E51295D336F30C434F431C435F44E
:1010200032C436F4376F2CC438F40001CEDD04012D
:101030002E51285D306F2D512925316F2E512825D5
:10104000326F2D512925336F30C434F431C435F457
:1010500032C436F4376F2CC438F40001B6DD040115
:101060002E51285D306F2D51295D316F2E5128256D
:10107000326F2D51295D336F30C434F431C435F4EF
:1010800032C436F4376F2CC438F400019EDD70D0C2
:10109000040128512D25306F29512E25316F30C480
:1010A00044F4456F2CC446F4000131DD040128519D
:1010B0002E25306F29512D25316F30C444F4456FF2
:1010C0002CC446F4000123DD04012D51285D306F4E
:1010D00029512E25316F30C444F4456F2CC446F499
:1010E000000115DD04012E51285D306F29512D2599
:1010F000316F30C444F4456F2CC446F4000107DD61
:10110000040128512E25306F2D51295D316F30C4D7
:1011100044F4456F2CC446F40001F9DC0401285165
:101120002D25306F2E51295D316F30C444F4456F49
:101130002CC446F40001EBDC04012D51285D306F16
:101140002E51295D316F30C444F4456F2CC446F4F0
:101150000001DDDC04012E51285D306F2D51295D29
:10116000316F30C444F4456F2CC446F40001CFDC29
:1011700004012FBF01D00ED02D512D2B306F020E48
:10118000316F30C432F40001F2DE0150030F04016C
:101190002F2711D02D512D2B306F2E512E07305D62
:1011A000306F020E316F30C432F40001E0DE0150C6
:1011B000050F04012F272D51800A006E2E51800A41
:1011C000005CD8B403D7D8A001D700011200F86A98
:1011D000D09EEA6AE96A0401276B266BC150C00BF6
:1011E0000F09C16E070EB46E6F0E1C6F1D6B450E9E
:1011F0001E6F580E1F6F500E206F4B0E216F490E41
:10120000226F540E236F530E246F256BC150C00BF9
:101210000F09C16EC290010E286F0001A5EF01F009
:101220005BEF03F003C007F402C006F401C005F44D
:1012300000C004F4040E0401276F080E266F020E8E
:10124000E96E07C42BF406C42AF405C429F404C4C7
:1012500028F4010E2C6F0001B3EF04F00401286B99
:10126000296B7F0E2A6F3F0E2B6F2C6B010E2D6F9B
:10127000000148DD040E0401286F2A0E296F040EB8
:101280002B6F1E0E2A6F020E2C6F010E2D6F0001A8
:101290009ADD4B0E0401286F080E296F040E2B6F88
:1012A0001C0E2A6F020E2C6F010E2D6F00018BDDBC
:1012B000640E0401286F0D0E296F040E2A6F010EB3
:1012C0002B6F2C6F00017ADE600E0401286F0D0E6B
:1012D000296F680E2A6F280E2B6F010E2C6F2D6F51
:1012E000000110DD640E0401286F280E296F0A0E1C
:1012F0002A6F010E2B6F2C6F000160DE050E0401BA
:10130000286F296F500E2A6F230E2B6F010E2C6F42
:101310002D6B0001F7DC050E0401286F0E0E296FFE
:10132000040E2B6F080E2A6F030E2C6F010E2D6F0B
:10133000000149DD4B0E0401286F080E296F040ED1
:101340002B6F1C0E2A6F020E2C6F010E2D6F0001E9
:0A1350003ADD49EC01F064D7030018
:020000040030CA
:0E00000000C2180E008581000FC00FE00F40F7
:00000001FF
;PIC18F4520
;CRC=42C5  CREATED="02-Nis-13 20:24"
